{
	"Wallet/contracts/ExceptionRequire.sol": {
		"ExceptionRequire": {
			"abi": [
				{
					"inputs": [
						{
							"internalType": "address",
							"name": "",
							"type": "address"
						}
					],
					"name": "balanceReceived",
					"outputs": [
						{
							"internalType": "uint8",
							"name": "",
							"type": "uint8"
						}
					],
					"stateMutability": "view",
					"type": "function"
				},
				{
					"inputs": [],
					"name": "receiveMoney",
					"outputs": [],
					"stateMutability": "payable",
					"type": "function"
				},
				{
					"inputs": [
						{
							"internalType": "address payable",
							"name": "_to",
							"type": "address"
						},
						{
							"internalType": "uint8",
							"name": "_amount",
							"type": "uint8"
						}
					],
					"name": "withdrawMoney",
					"outputs": [],
					"stateMutability": "nonpayable",
					"type": "function"
				}
			],
			"devdoc": {
				"kind": "dev",
				"methods": {},
				"version": 1
			},
			"evm": {
				"assembly": "    /* \"Wallet/contracts/ExceptionRequire.sol\":61:570  contract ExceptionRequire {... */\n  mstore(0x40, 0x80)\n  callvalue\n  dup1\n  iszero\n  tag_1\n  jumpi\n  0x00\n  dup1\n  revert\ntag_1:\n  pop\n  dataSize(sub_0)\n  dup1\n  dataOffset(sub_0)\n  0x00\n  codecopy\n  0x00\n  return\nstop\n\nsub_0: assembly {\n        /* \"Wallet/contracts/ExceptionRequire.sol\":61:570  contract ExceptionRequire {... */\n      mstore(0x40, 0x80)\n      jumpi(tag_1, lt(calldatasize, 0x04))\n      shr(0xe0, calldataload(0x00))\n      dup1\n      0x67c114b8\n      eq\n      tag_2\n      jumpi\n      dup1\n      0x6d26ec18\n      eq\n      tag_3\n      jumpi\n      dup1\n      0xd18a42e1\n      eq\n      tag_4\n      jumpi\n    tag_1:\n      0x00\n      dup1\n      revert\n        /* \"Wallet/contracts/ExceptionRequire.sol\":314:565  function withdrawMoney(address payable _to, uint8 _amount) public {... */\n    tag_2:\n      callvalue\n      dup1\n      iszero\n      tag_5\n      jumpi\n      0x00\n      dup1\n      revert\n    tag_5:\n      pop\n      tag_6\n      0x04\n      dup1\n      calldatasize\n      sub\n      dup2\n      add\n      swap1\n      tag_7\n      swap2\n      swap1\n      tag_8\n      jump\t// in\n    tag_7:\n      tag_9\n      jump\t// in\n    tag_6:\n      stop\n        /* \"Wallet/contracts/ExceptionRequire.sol\":153:306  function receiveMoney() public payable {... */\n    tag_3:\n      tag_10\n      tag_11\n      jump\t// in\n    tag_10:\n      stop\n        /* \"Wallet/contracts/ExceptionRequire.sol\":96:144  mapping(address => uint8) public balanceReceived */\n    tag_4:\n      callvalue\n      dup1\n      iszero\n      tag_12\n      jumpi\n      0x00\n      dup1\n      revert\n    tag_12:\n      pop\n      tag_13\n      0x04\n      dup1\n      calldatasize\n      sub\n      dup2\n      add\n      swap1\n      tag_14\n      swap2\n      swap1\n      tag_15\n      jump\t// in\n    tag_14:\n      tag_16\n      jump\t// in\n    tag_13:\n      mload(0x40)\n      tag_17\n      swap2\n      swap1\n      tag_18\n      jump\t// in\n    tag_17:\n      mload(0x40)\n      dup1\n      swap2\n      sub\n      swap1\n      return\n        /* \"Wallet/contracts/ExceptionRequire.sol\":314:565  function withdrawMoney(address payable _to, uint8 _amount) public {... */\n    tag_9:\n        /* \"Wallet/contracts/ExceptionRequire.sol\":410:425  balanceReceived */\n      0x00\n        /* \"Wallet/contracts/ExceptionRequire.sol\":410:437  balanceReceived[msg.sender] */\n      dup1\n        /* \"Wallet/contracts/ExceptionRequire.sol\":426:436  msg.sender */\n      caller\n        /* \"Wallet/contracts/ExceptionRequire.sol\":410:437  balanceReceived[msg.sender] */\n      0xffffffffffffffffffffffffffffffffffffffff\n      and\n      0xffffffffffffffffffffffffffffffffffffffff\n      and\n      dup2\n      mstore\n      0x20\n      add\n      swap1\n      dup2\n      mstore\n      0x20\n      add\n      0x00\n      keccak256\n      0x00\n      swap1\n      sload\n      swap1\n      0x0100\n      exp\n      swap1\n      div\n      0xff\n      and\n        /* \"Wallet/contracts/ExceptionRequire.sol\":399:437  _amount <= balanceReceived[msg.sender] */\n      0xff\n      and\n        /* \"Wallet/contracts/ExceptionRequire.sol\":399:406  _amount */\n      dup2\n        /* \"Wallet/contracts/ExceptionRequire.sol\":399:437  _amount <= balanceReceived[msg.sender] */\n      0xff\n      and\n      gt\n      iszero\n        /* \"Wallet/contracts/ExceptionRequire.sol\":391:468  require(_amount <= balanceReceived[msg.sender], \"Not enough funds, aborting\") */\n      tag_20\n      jumpi\n      mload(0x40)\n      0x08c379a000000000000000000000000000000000000000000000000000000000\n      dup2\n      mstore\n      0x04\n      add\n      tag_21\n      swap1\n      tag_22\n      jump\t// in\n    tag_21:\n      mload(0x40)\n      dup1\n      swap2\n      sub\n      swap1\n      revert\n    tag_20:\n        /* \"Wallet/contracts/ExceptionRequire.sol\":514:521  _amount */\n      dup1\n        /* \"Wallet/contracts/ExceptionRequire.sol\":483:498  balanceReceived */\n      0x00\n        /* \"Wallet/contracts/ExceptionRequire.sol\":483:510  balanceReceived[msg.sender] */\n      dup1\n        /* \"Wallet/contracts/ExceptionRequire.sol\":499:509  msg.sender */\n      caller\n        /* \"Wallet/contracts/ExceptionRequire.sol\":483:510  balanceReceived[msg.sender] */\n      0xffffffffffffffffffffffffffffffffffffffff\n      and\n      0xffffffffffffffffffffffffffffffffffffffff\n      and\n      dup2\n      mstore\n      0x20\n      add\n      swap1\n      dup2\n      mstore\n      0x20\n      add\n      0x00\n      keccak256\n      0x00\n        /* \"Wallet/contracts/ExceptionRequire.sol\":483:521  balanceReceived[msg.sender] -= _amount */\n      dup3\n      dup3\n      dup3\n      swap1\n      sload\n      swap1\n      0x0100\n      exp\n      swap1\n      div\n      0xff\n      and\n      tag_23\n      swap2\n      swap1\n      tag_24\n      jump\t// in\n    tag_23:\n      swap3\n      pop\n      0x0100\n      exp\n      dup2\n      sload\n      dup2\n      0xff\n      mul\n      not\n      and\n      swap1\n      dup4\n      0xff\n      and\n      mul\n      or\n      swap1\n      sstore\n      pop\n        /* \"Wallet/contracts/ExceptionRequire.sol\":536:539  _to */\n      dup2\n        /* \"Wallet/contracts/ExceptionRequire.sol\":536:548  _to.transfer */\n      0xffffffffffffffffffffffffffffffffffffffff\n      and\n        /* \"Wallet/contracts/ExceptionRequire.sol\":536:557  _to.transfer(_amount) */\n      0x08fc\n        /* \"Wallet/contracts/ExceptionRequire.sol\":549:556  _amount */\n      dup3\n        /* \"Wallet/contracts/ExceptionRequire.sol\":536:557  _to.transfer(_amount) */\n      0xff\n      and\n      swap1\n      dup2\n      iszero\n      mul\n      swap1\n      mload(0x40)\n      0x00\n      mload(0x40)\n      dup1\n      dup4\n      sub\n      dup2\n      dup6\n      dup9\n      dup9\n      call\n      swap4\n      pop\n      pop\n      pop\n      pop\n      iszero\n      dup1\n      iszero\n      tag_26\n      jumpi\n      returndatasize\n      0x00\n      dup1\n      returndatacopy\n      revert(0x00, returndatasize)\n    tag_26:\n      pop\n        /* \"Wallet/contracts/ExceptionRequire.sol\":314:565  function withdrawMoney(address payable _to, uint8 _amount) public {... */\n      pop\n      pop\n      jump\t// out\n        /* \"Wallet/contracts/ExceptionRequire.sol\":153:306  function receiveMoney() public payable {... */\n    tag_11:\n        /* \"Wallet/contracts/ExceptionRequire.sol\":229:238  msg.value */\n      callvalue\n        /* \"Wallet/contracts/ExceptionRequire.sol\":210:239  msg.value == uint8(msg.value) */\n      0xff\n      and\n        /* \"Wallet/contracts/ExceptionRequire.sol\":210:219  msg.value */\n      callvalue\n        /* \"Wallet/contracts/ExceptionRequire.sol\":210:239  msg.value == uint8(msg.value) */\n      eq\n        /* \"Wallet/contracts/ExceptionRequire.sol\":203:240  assert(msg.value == uint8(msg.value)) */\n      tag_28\n      jumpi\n      tag_29\n      tag_30\n      jump\t// in\n    tag_29:\n    tag_28:\n        /* \"Wallet/contracts/ExceptionRequire.sol\":288:297  msg.value */\n      callvalue\n        /* \"Wallet/contracts/ExceptionRequire.sol\":251:266  balanceReceived */\n      0x00\n        /* \"Wallet/contracts/ExceptionRequire.sol\":251:278  balanceReceived[msg.sender] */\n      dup1\n        /* \"Wallet/contracts/ExceptionRequire.sol\":267:277  msg.sender */\n      caller\n        /* \"Wallet/contracts/ExceptionRequire.sol\":251:278  balanceReceived[msg.sender] */\n      0xffffffffffffffffffffffffffffffffffffffff\n      and\n      0xffffffffffffffffffffffffffffffffffffffff\n      and\n      dup2\n      mstore\n      0x20\n      add\n      swap1\n      dup2\n      mstore\n      0x20\n      add\n      0x00\n      keccak256\n      0x00\n        /* \"Wallet/contracts/ExceptionRequire.sol\":251:298  balanceReceived[msg.sender] += uint8(msg.value) */\n      dup3\n      dup3\n      dup3\n      swap1\n      sload\n      swap1\n      0x0100\n      exp\n      swap1\n      div\n      0xff\n      and\n      tag_31\n      swap2\n      swap1\n      tag_32\n      jump\t// in\n    tag_31:\n      swap3\n      pop\n      0x0100\n      exp\n      dup2\n      sload\n      dup2\n      0xff\n      mul\n      not\n      and\n      swap1\n      dup4\n      0xff\n      and\n      mul\n      or\n      swap1\n      sstore\n      pop\n        /* \"Wallet/contracts/ExceptionRequire.sol\":153:306  function receiveMoney() public payable {... */\n      jump\t// out\n        /* \"Wallet/contracts/ExceptionRequire.sol\":96:144  mapping(address => uint8) public balanceReceived */\n    tag_16:\n      mstore(0x20, 0x00)\n      dup1\n      0x00\n      mstore\n      keccak256(0x00, 0x40)\n      0x00\n      swap2\n      pop\n      sload\n      swap1\n      0x0100\n      exp\n      swap1\n      div\n      0xff\n      and\n      dup2\n      jump\t// out\n        /* \"#utility.yul\":88:205   */\n    tag_34:\n        /* \"#utility.yul\":197:198   */\n      0x00\n        /* \"#utility.yul\":194:195   */\n      dup1\n        /* \"#utility.yul\":187:199   */\n      revert\n        /* \"#utility.yul\":334:460   */\n    tag_36:\n        /* \"#utility.yul\":371:378   */\n      0x00\n        /* \"#utility.yul\":411:453   */\n      0xffffffffffffffffffffffffffffffffffffffff\n        /* \"#utility.yul\":404:409   */\n      dup3\n        /* \"#utility.yul\":400:454   */\n      and\n        /* \"#utility.yul\":389:454   */\n      swap1\n      pop\n        /* \"#utility.yul\":334:460   */\n      swap2\n      swap1\n      pop\n      jump\t// out\n        /* \"#utility.yul\":466:570   */\n    tag_37:\n        /* \"#utility.yul\":511:518   */\n      0x00\n        /* \"#utility.yul\":540:564   */\n      tag_57\n        /* \"#utility.yul\":558:563   */\n      dup3\n        /* \"#utility.yul\":540:564   */\n      tag_36\n      jump\t// in\n    tag_57:\n        /* \"#utility.yul\":529:564   */\n      swap1\n      pop\n        /* \"#utility.yul\":466:570   */\n      swap2\n      swap1\n      pop\n      jump\t// out\n        /* \"#utility.yul\":576:714   */\n    tag_38:\n        /* \"#utility.yul\":657:689   */\n      tag_59\n        /* \"#utility.yul\":683:688   */\n      dup2\n        /* \"#utility.yul\":657:689   */\n      tag_37\n      jump\t// in\n    tag_59:\n        /* \"#utility.yul\":650:655   */\n      dup2\n        /* \"#utility.yul\":647:690   */\n      eq\n        /* \"#utility.yul\":637:708   */\n      tag_60\n      jumpi\n        /* \"#utility.yul\":704:705   */\n      0x00\n        /* \"#utility.yul\":701:702   */\n      dup1\n        /* \"#utility.yul\":694:706   */\n      revert\n        /* \"#utility.yul\":637:708   */\n    tag_60:\n        /* \"#utility.yul\":576:714   */\n      pop\n      jump\t// out\n        /* \"#utility.yul\":720:875   */\n    tag_39:\n        /* \"#utility.yul\":774:779   */\n      0x00\n        /* \"#utility.yul\":812:818   */\n      dup2\n        /* \"#utility.yul\":799:819   */\n      calldataload\n        /* \"#utility.yul\":790:819   */\n      swap1\n      pop\n        /* \"#utility.yul\":828:869   */\n      tag_62\n        /* \"#utility.yul\":863:868   */\n      dup2\n        /* \"#utility.yul\":828:869   */\n      tag_38\n      jump\t// in\n    tag_62:\n        /* \"#utility.yul\":720:875   */\n      swap3\n      swap2\n      pop\n      pop\n      jump\t// out\n        /* \"#utility.yul\":881:967   */\n    tag_40:\n        /* \"#utility.yul\":916:923   */\n      0x00\n        /* \"#utility.yul\":956:960   */\n      0xff\n        /* \"#utility.yul\":949:954   */\n      dup3\n        /* \"#utility.yul\":945:961   */\n      and\n        /* \"#utility.yul\":934:961   */\n      swap1\n      pop\n        /* \"#utility.yul\":881:967   */\n      swap2\n      swap1\n      pop\n      jump\t// out\n        /* \"#utility.yul\":973:1091   */\n    tag_41:\n        /* \"#utility.yul\":1044:1066   */\n      tag_65\n        /* \"#utility.yul\":1060:1065   */\n      dup2\n        /* \"#utility.yul\":1044:1066   */\n      tag_40\n      jump\t// in\n    tag_65:\n        /* \"#utility.yul\":1037:1042   */\n      dup2\n        /* \"#utility.yul\":1034:1067   */\n      eq\n        /* \"#utility.yul\":1024:1085   */\n      tag_66\n      jumpi\n        /* \"#utility.yul\":1081:1082   */\n      0x00\n        /* \"#utility.yul\":1078:1079   */\n      dup1\n        /* \"#utility.yul\":1071:1083   */\n      revert\n        /* \"#utility.yul\":1024:1085   */\n    tag_66:\n        /* \"#utility.yul\":973:1091   */\n      pop\n      jump\t// out\n        /* \"#utility.yul\":1097:1232   */\n    tag_42:\n        /* \"#utility.yul\":1141:1146   */\n      0x00\n        /* \"#utility.yul\":1179:1185   */\n      dup2\n        /* \"#utility.yul\":1166:1186   */\n      calldataload\n        /* \"#utility.yul\":1157:1186   */\n      swap1\n      pop\n        /* \"#utility.yul\":1195:1226   */\n      tag_68\n        /* \"#utility.yul\":1220:1225   */\n      dup2\n        /* \"#utility.yul\":1195:1226   */\n      tag_41\n      jump\t// in\n    tag_68:\n        /* \"#utility.yul\":1097:1232   */\n      swap3\n      swap2\n      pop\n      pop\n      jump\t// out\n        /* \"#utility.yul\":1238:1724   */\n    tag_8:\n        /* \"#utility.yul\":1312:1318   */\n      0x00\n        /* \"#utility.yul\":1320:1326   */\n      dup1\n        /* \"#utility.yul\":1369:1371   */\n      0x40\n        /* \"#utility.yul\":1357:1366   */\n      dup4\n        /* \"#utility.yul\":1348:1355   */\n      dup6\n        /* \"#utility.yul\":1344:1367   */\n      sub\n        /* \"#utility.yul\":1340:1372   */\n      slt\n        /* \"#utility.yul\":1337:1456   */\n      iszero\n      tag_70\n      jumpi\n        /* \"#utility.yul\":1375:1454   */\n      tag_71\n      tag_34\n      jump\t// in\n    tag_71:\n        /* \"#utility.yul\":1337:1456   */\n    tag_70:\n        /* \"#utility.yul\":1495:1496   */\n      0x00\n        /* \"#utility.yul\":1520:1581   */\n      tag_72\n        /* \"#utility.yul\":1573:1580   */\n      dup6\n        /* \"#utility.yul\":1564:1570   */\n      dup3\n        /* \"#utility.yul\":1553:1562   */\n      dup7\n        /* \"#utility.yul\":1549:1571   */\n      add\n        /* \"#utility.yul\":1520:1581   */\n      tag_39\n      jump\t// in\n    tag_72:\n        /* \"#utility.yul\":1510:1581   */\n      swap3\n      pop\n        /* \"#utility.yul\":1466:1591   */\n      pop\n        /* \"#utility.yul\":1630:1632   */\n      0x20\n        /* \"#utility.yul\":1656:1707   */\n      tag_73\n        /* \"#utility.yul\":1699:1706   */\n      dup6\n        /* \"#utility.yul\":1690:1696   */\n      dup3\n        /* \"#utility.yul\":1679:1688   */\n      dup7\n        /* \"#utility.yul\":1675:1697   */\n      add\n        /* \"#utility.yul\":1656:1707   */\n      tag_42\n      jump\t// in\n    tag_73:\n        /* \"#utility.yul\":1646:1707   */\n      swap2\n      pop\n        /* \"#utility.yul\":1601:1717   */\n      pop\n        /* \"#utility.yul\":1238:1724   */\n      swap3\n      pop\n      swap3\n      swap1\n      pop\n      jump\t// out\n        /* \"#utility.yul\":1730:1826   */\n    tag_43:\n        /* \"#utility.yul\":1767:1774   */\n      0x00\n        /* \"#utility.yul\":1796:1820   */\n      tag_75\n        /* \"#utility.yul\":1814:1819   */\n      dup3\n        /* \"#utility.yul\":1796:1820   */\n      tag_36\n      jump\t// in\n    tag_75:\n        /* \"#utility.yul\":1785:1820   */\n      swap1\n      pop\n        /* \"#utility.yul\":1730:1826   */\n      swap2\n      swap1\n      pop\n      jump\t// out\n        /* \"#utility.yul\":1832:1954   */\n    tag_44:\n        /* \"#utility.yul\":1905:1929   */\n      tag_77\n        /* \"#utility.yul\":1923:1928   */\n      dup2\n        /* \"#utility.yul\":1905:1929   */\n      tag_43\n      jump\t// in\n    tag_77:\n        /* \"#utility.yul\":1898:1903   */\n      dup2\n        /* \"#utility.yul\":1895:1930   */\n      eq\n        /* \"#utility.yul\":1885:1948   */\n      tag_78\n      jumpi\n        /* \"#utility.yul\":1944:1945   */\n      0x00\n        /* \"#utility.yul\":1941:1942   */\n      dup1\n        /* \"#utility.yul\":1934:1946   */\n      revert\n        /* \"#utility.yul\":1885:1948   */\n    tag_78:\n        /* \"#utility.yul\":1832:1954   */\n      pop\n      jump\t// out\n        /* \"#utility.yul\":1960:2099   */\n    tag_45:\n        /* \"#utility.yul\":2006:2011   */\n      0x00\n        /* \"#utility.yul\":2044:2050   */\n      dup2\n        /* \"#utility.yul\":2031:2051   */\n      calldataload\n        /* \"#utility.yul\":2022:2051   */\n      swap1\n      pop\n        /* \"#utility.yul\":2060:2093   */\n      tag_80\n        /* \"#utility.yul\":2087:2092   */\n      dup2\n        /* \"#utility.yul\":2060:2093   */\n      tag_44\n      jump\t// in\n    tag_80:\n        /* \"#utility.yul\":1960:2099   */\n      swap3\n      swap2\n      pop\n      pop\n      jump\t// out\n        /* \"#utility.yul\":2105:2434   */\n    tag_15:\n        /* \"#utility.yul\":2164:2170   */\n      0x00\n        /* \"#utility.yul\":2213:2215   */\n      0x20\n        /* \"#utility.yul\":2201:2210   */\n      dup3\n        /* \"#utility.yul\":2192:2199   */\n      dup5\n        /* \"#utility.yul\":2188:2211   */\n      sub\n        /* \"#utility.yul\":2184:2216   */\n      slt\n        /* \"#utility.yul\":2181:2300   */\n      iszero\n      tag_82\n      jumpi\n        /* \"#utility.yul\":2219:2298   */\n      tag_83\n      tag_34\n      jump\t// in\n    tag_83:\n        /* \"#utility.yul\":2181:2300   */\n    tag_82:\n        /* \"#utility.yul\":2339:2340   */\n      0x00\n        /* \"#utility.yul\":2364:2417   */\n      tag_84\n        /* \"#utility.yul\":2409:2416   */\n      dup5\n        /* \"#utility.yul\":2400:2406   */\n      dup3\n        /* \"#utility.yul\":2389:2398   */\n      dup6\n        /* \"#utility.yul\":2385:2407   */\n      add\n        /* \"#utility.yul\":2364:2417   */\n      tag_45\n      jump\t// in\n    tag_84:\n        /* \"#utility.yul\":2354:2417   */\n      swap2\n      pop\n        /* \"#utility.yul\":2310:2427   */\n      pop\n        /* \"#utility.yul\":2105:2434   */\n      swap3\n      swap2\n      pop\n      pop\n      jump\t// out\n        /* \"#utility.yul\":2440:2552   */\n    tag_46:\n        /* \"#utility.yul\":2523:2545   */\n      tag_86\n        /* \"#utility.yul\":2539:2544   */\n      dup2\n        /* \"#utility.yul\":2523:2545   */\n      tag_40\n      jump\t// in\n    tag_86:\n        /* \"#utility.yul\":2518:2521   */\n      dup3\n        /* \"#utility.yul\":2511:2546   */\n      mstore\n        /* \"#utility.yul\":2440:2552   */\n      pop\n      pop\n      jump\t// out\n        /* \"#utility.yul\":2558:2772   */\n    tag_18:\n        /* \"#utility.yul\":2647:2651   */\n      0x00\n        /* \"#utility.yul\":2685:2687   */\n      0x20\n        /* \"#utility.yul\":2674:2683   */\n      dup3\n        /* \"#utility.yul\":2670:2688   */\n      add\n        /* \"#utility.yul\":2662:2688   */\n      swap1\n      pop\n        /* \"#utility.yul\":2698:2765   */\n      tag_88\n        /* \"#utility.yul\":2762:2763   */\n      0x00\n        /* \"#utility.yul\":2751:2760   */\n      dup4\n        /* \"#utility.yul\":2747:2764   */\n      add\n        /* \"#utility.yul\":2738:2744   */\n      dup5\n        /* \"#utility.yul\":2698:2765   */\n      tag_46\n      jump\t// in\n    tag_88:\n        /* \"#utility.yul\":2558:2772   */\n      swap3\n      swap2\n      pop\n      pop\n      jump\t// out\n        /* \"#utility.yul\":2778:2947   */\n    tag_47:\n        /* \"#utility.yul\":2862:2873   */\n      0x00\n        /* \"#utility.yul\":2896:2902   */\n      dup3\n        /* \"#utility.yul\":2891:2894   */\n      dup3\n        /* \"#utility.yul\":2884:2903   */\n      mstore\n        /* \"#utility.yul\":2936:2940   */\n      0x20\n        /* \"#utility.yul\":2931:2934   */\n      dup3\n        /* \"#utility.yul\":2927:2941   */\n      add\n        /* \"#utility.yul\":2912:2941   */\n      swap1\n      pop\n        /* \"#utility.yul\":2778:2947   */\n      swap3\n      swap2\n      pop\n      pop\n      jump\t// out\n        /* \"#utility.yul\":2953:3129   */\n    tag_48:\n        /* \"#utility.yul\":3093:3121   */\n      0x4e6f7420656e6f7567682066756e64732c2061626f7274696e67000000000000\n        /* \"#utility.yul\":3089:3090   */\n      0x00\n        /* \"#utility.yul\":3081:3087   */\n      dup3\n        /* \"#utility.yul\":3077:3091   */\n      add\n        /* \"#utility.yul\":3070:3122   */\n      mstore\n        /* \"#utility.yul\":2953:3129   */\n      pop\n      jump\t// out\n        /* \"#utility.yul\":3135:3501   */\n    tag_49:\n        /* \"#utility.yul\":3277:3280   */\n      0x00\n        /* \"#utility.yul\":3298:3365   */\n      tag_92\n        /* \"#utility.yul\":3362:3364   */\n      0x1a\n        /* \"#utility.yul\":3357:3360   */\n      dup4\n        /* \"#utility.yul\":3298:3365   */\n      tag_47\n      jump\t// in\n    tag_92:\n        /* \"#utility.yul\":3291:3365   */\n      swap2\n      pop\n        /* \"#utility.yul\":3374:3467   */\n      tag_93\n        /* \"#utility.yul\":3463:3466   */\n      dup3\n        /* \"#utility.yul\":3374:3467   */\n      tag_48\n      jump\t// in\n    tag_93:\n        /* \"#utility.yul\":3492:3494   */\n      0x20\n        /* \"#utility.yul\":3487:3490   */\n      dup3\n        /* \"#utility.yul\":3483:3495   */\n      add\n        /* \"#utility.yul\":3476:3495   */\n      swap1\n      pop\n        /* \"#utility.yul\":3135:3501   */\n      swap2\n      swap1\n      pop\n      jump\t// out\n        /* \"#utility.yul\":3507:3926   */\n    tag_22:\n        /* \"#utility.yul\":3673:3677   */\n      0x00\n        /* \"#utility.yul\":3711:3713   */\n      0x20\n        /* \"#utility.yul\":3700:3709   */\n      dup3\n        /* \"#utility.yul\":3696:3714   */\n      add\n        /* \"#utility.yul\":3688:3714   */\n      swap1\n      pop\n        /* \"#utility.yul\":3760:3769   */\n      dup2\n        /* \"#utility.yul\":3754:3758   */\n      dup2\n        /* \"#utility.yul\":3750:3770   */\n      sub\n        /* \"#utility.yul\":3746:3747   */\n      0x00\n        /* \"#utility.yul\":3735:3744   */\n      dup4\n        /* \"#utility.yul\":3731:3748   */\n      add\n        /* \"#utility.yul\":3724:3771   */\n      mstore\n        /* \"#utility.yul\":3788:3919   */\n      tag_95\n        /* \"#utility.yul\":3914:3918   */\n      dup2\n        /* \"#utility.yul\":3788:3919   */\n      tag_49\n      jump\t// in\n    tag_95:\n        /* \"#utility.yul\":3780:3919   */\n      swap1\n      pop\n        /* \"#utility.yul\":3507:3926   */\n      swap2\n      swap1\n      pop\n      jump\t// out\n        /* \"#utility.yul\":3932:4112   */\n    tag_50:\n        /* \"#utility.yul\":3980:4057   */\n      0x4e487b7100000000000000000000000000000000000000000000000000000000\n        /* \"#utility.yul\":3977:3978   */\n      0x00\n        /* \"#utility.yul\":3970:4058   */\n      mstore\n        /* \"#utility.yul\":4077:4081   */\n      0x11\n        /* \"#utility.yul\":4074:4075   */\n      0x04\n        /* \"#utility.yul\":4067:4082   */\n      mstore\n        /* \"#utility.yul\":4101:4105   */\n      0x24\n        /* \"#utility.yul\":4098:4099   */\n      0x00\n        /* \"#utility.yul\":4091:4106   */\n      revert\n        /* \"#utility.yul\":4118:4309   */\n    tag_24:\n        /* \"#utility.yul\":4156:4160   */\n      0x00\n        /* \"#utility.yul\":4176:4194   */\n      tag_98\n        /* \"#utility.yul\":4192:4193   */\n      dup3\n        /* \"#utility.yul\":4176:4194   */\n      tag_40\n      jump\t// in\n    tag_98:\n        /* \"#utility.yul\":4171:4194   */\n      swap2\n      pop\n        /* \"#utility.yul\":4208:4226   */\n      tag_99\n        /* \"#utility.yul\":4224:4225   */\n      dup4\n        /* \"#utility.yul\":4208:4226   */\n      tag_40\n      jump\t// in\n    tag_99:\n        /* \"#utility.yul\":4203:4226   */\n      swap3\n      pop\n        /* \"#utility.yul\":4250:4251   */\n      dup3\n        /* \"#utility.yul\":4247:4248   */\n      dup3\n        /* \"#utility.yul\":4243:4252   */\n      sub\n        /* \"#utility.yul\":4235:4252   */\n      swap1\n      pop\n        /* \"#utility.yul\":4274:4278   */\n      0xff\n        /* \"#utility.yul\":4268:4272   */\n      dup2\n        /* \"#utility.yul\":4265:4279   */\n      gt\n        /* \"#utility.yul\":4262:4302   */\n      iszero\n      tag_100\n      jumpi\n        /* \"#utility.yul\":4282:4300   */\n      tag_101\n      tag_50\n      jump\t// in\n    tag_101:\n        /* \"#utility.yul\":4262:4302   */\n    tag_100:\n        /* \"#utility.yul\":4118:4309   */\n      swap3\n      swap2\n      pop\n      pop\n      jump\t// out\n        /* \"#utility.yul\":4315:4495   */\n    tag_30:\n        /* \"#utility.yul\":4363:4440   */\n      0x4e487b7100000000000000000000000000000000000000000000000000000000\n        /* \"#utility.yul\":4360:4361   */\n      0x00\n        /* \"#utility.yul\":4353:4441   */\n      mstore\n        /* \"#utility.yul\":4460:4464   */\n      0x01\n        /* \"#utility.yul\":4457:4458   */\n      0x04\n        /* \"#utility.yul\":4450:4465   */\n      mstore\n        /* \"#utility.yul\":4484:4488   */\n      0x24\n        /* \"#utility.yul\":4481:4482   */\n      0x00\n        /* \"#utility.yul\":4474:4489   */\n      revert\n        /* \"#utility.yul\":4501:4689   */\n    tag_32:\n        /* \"#utility.yul\":4539:4542   */\n      0x00\n        /* \"#utility.yul\":4558:4576   */\n      tag_104\n        /* \"#utility.yul\":4574:4575   */\n      dup3\n        /* \"#utility.yul\":4558:4576   */\n      tag_40\n      jump\t// in\n    tag_104:\n        /* \"#utility.yul\":4553:4576   */\n      swap2\n      pop\n        /* \"#utility.yul\":4590:4608   */\n      tag_105\n        /* \"#utility.yul\":4606:4607   */\n      dup4\n        /* \"#utility.yul\":4590:4608   */\n      tag_40\n      jump\t// in\n    tag_105:\n        /* \"#utility.yul\":4585:4608   */\n      swap3\n      pop\n        /* \"#utility.yul\":4631:4632   */\n      dup3\n        /* \"#utility.yul\":4628:4629   */\n      dup3\n        /* \"#utility.yul\":4624:4633   */\n      add\n        /* \"#utility.yul\":4617:4633   */\n      swap1\n      pop\n        /* \"#utility.yul\":4654:4658   */\n      0xff\n        /* \"#utility.yul\":4649:4652   */\n      dup2\n        /* \"#utility.yul\":4646:4659   */\n      gt\n        /* \"#utility.yul\":4643:4682   */\n      iszero\n      tag_106\n      jumpi\n        /* \"#utility.yul\":4662:4680   */\n      tag_107\n      tag_50\n      jump\t// in\n    tag_107:\n        /* \"#utility.yul\":4643:4682   */\n    tag_106:\n        /* \"#utility.yul\":4501:4689   */\n      swap3\n      swap2\n      pop\n      pop\n      jump\t// out\n\n    auxdata: 0xa26469706673582212209742bbc864d51c26e98825606d99a8afa12582d683f9be374b9cf111645c7c1564736f6c63430008120033\n}\n",
				"bytecode": {
					"linkReferences": {},
					"object": "608060405234801561001057600080fd5b50610590806100206000396000f3fe6080604052600436106100345760003560e01c806367c114b8146100395780636d26ec1814610062578063d18a42e11461006c575b600080fd5b34801561004557600080fd5b50610060600480360381019061005b9190610340565b6100a9565b005b61006a6101fd565b005b34801561007857600080fd5b50610093600480360381019061008e91906103be565b610284565b6040516100a091906103fa565b60405180910390f35b6000803373ffffffffffffffffffffffffffffffffffffffff1673ffffffffffffffffffffffffffffffffffffffff16815260200190815260200160002060009054906101000a900460ff1660ff168160ff16111561013d576040517f08c379a000000000000000000000000000000000000000000000000000000000815260040161013490610472565b60405180910390fd5b806000803373ffffffffffffffffffffffffffffffffffffffff1673ffffffffffffffffffffffffffffffffffffffff16815260200190815260200160002060008282829054906101000a900460ff1661019791906104c1565b92506101000a81548160ff021916908360ff1602179055508173ffffffffffffffffffffffffffffffffffffffff166108fc8260ff169081150290604051600060405180830381858888f193505050501580156101f8573d6000803e3d6000fd5b505050565b3460ff1634146102105761020f6104f6565b5b346000803373ffffffffffffffffffffffffffffffffffffffff1673ffffffffffffffffffffffffffffffffffffffff16815260200190815260200160002060008282829054906101000a900460ff1661026a9190610525565b92506101000a81548160ff021916908360ff160217905550565b60006020528060005260406000206000915054906101000a900460ff1681565b600080fd5b600073ffffffffffffffffffffffffffffffffffffffff82169050919050565b60006102d4826102a9565b9050919050565b6102e4816102c9565b81146102ef57600080fd5b50565b600081359050610301816102db565b92915050565b600060ff82169050919050565b61031d81610307565b811461032857600080fd5b50565b60008135905061033a81610314565b92915050565b60008060408385031215610357576103566102a4565b5b6000610365858286016102f2565b92505060206103768582860161032b565b9150509250929050565b600061038b826102a9565b9050919050565b61039b81610380565b81146103a657600080fd5b50565b6000813590506103b881610392565b92915050565b6000602082840312156103d4576103d36102a4565b5b60006103e2848285016103a9565b91505092915050565b6103f481610307565b82525050565b600060208201905061040f60008301846103eb565b92915050565b600082825260208201905092915050565b7f4e6f7420656e6f7567682066756e64732c2061626f7274696e67000000000000600082015250565b600061045c601a83610415565b915061046782610426565b602082019050919050565b6000602082019050818103600083015261048b8161044f565b9050919050565b7f4e487b7100000000000000000000000000000000000000000000000000000000600052601160045260246000fd5b60006104cc82610307565b91506104d783610307565b9250828203905060ff8111156104f0576104ef610492565b5b92915050565b7f4e487b7100000000000000000000000000000000000000000000000000000000600052600160045260246000fd5b600061053082610307565b915061053b83610307565b9250828201905060ff81111561055457610553610492565b5b9291505056fea26469706673582212209742bbc864d51c26e98825606d99a8afa12582d683f9be374b9cf111645c7c1564736f6c63430008120033",
					"opcodes": "PUSH1 0x80 PUSH1 0x40 MSTORE CALLVALUE DUP1 ISZERO PUSH2 0x10 JUMPI PUSH1 0x0 DUP1 REVERT JUMPDEST POP PUSH2 0x590 DUP1 PUSH2 0x20 PUSH1 0x0 CODECOPY PUSH1 0x0 RETURN INVALID PUSH1 0x80 PUSH1 0x40 MSTORE PUSH1 0x4 CALLDATASIZE LT PUSH2 0x34 JUMPI PUSH1 0x0 CALLDATALOAD PUSH1 0xE0 SHR DUP1 PUSH4 0x67C114B8 EQ PUSH2 0x39 JUMPI DUP1 PUSH4 0x6D26EC18 EQ PUSH2 0x62 JUMPI DUP1 PUSH4 0xD18A42E1 EQ PUSH2 0x6C JUMPI JUMPDEST PUSH1 0x0 DUP1 REVERT JUMPDEST CALLVALUE DUP1 ISZERO PUSH2 0x45 JUMPI PUSH1 0x0 DUP1 REVERT JUMPDEST POP PUSH2 0x60 PUSH1 0x4 DUP1 CALLDATASIZE SUB DUP2 ADD SWAP1 PUSH2 0x5B SWAP2 SWAP1 PUSH2 0x340 JUMP JUMPDEST PUSH2 0xA9 JUMP JUMPDEST STOP JUMPDEST PUSH2 0x6A PUSH2 0x1FD JUMP JUMPDEST STOP JUMPDEST CALLVALUE DUP1 ISZERO PUSH2 0x78 JUMPI PUSH1 0x0 DUP1 REVERT JUMPDEST POP PUSH2 0x93 PUSH1 0x4 DUP1 CALLDATASIZE SUB DUP2 ADD SWAP1 PUSH2 0x8E SWAP2 SWAP1 PUSH2 0x3BE JUMP JUMPDEST PUSH2 0x284 JUMP JUMPDEST PUSH1 0x40 MLOAD PUSH2 0xA0 SWAP2 SWAP1 PUSH2 0x3FA JUMP JUMPDEST PUSH1 0x40 MLOAD DUP1 SWAP2 SUB SWAP1 RETURN JUMPDEST PUSH1 0x0 DUP1 CALLER PUSH20 0xFFFFFFFFFFFFFFFFFFFFFFFFFFFFFFFFFFFFFFFF AND PUSH20 0xFFFFFFFFFFFFFFFFFFFFFFFFFFFFFFFFFFFFFFFF AND DUP2 MSTORE PUSH1 0x20 ADD SWAP1 DUP2 MSTORE PUSH1 0x20 ADD PUSH1 0x0 KECCAK256 PUSH1 0x0 SWAP1 SLOAD SWAP1 PUSH2 0x100 EXP SWAP1 DIV PUSH1 0xFF AND PUSH1 0xFF AND DUP2 PUSH1 0xFF AND GT ISZERO PUSH2 0x13D JUMPI PUSH1 0x40 MLOAD PUSH32 0x8C379A000000000000000000000000000000000000000000000000000000000 DUP2 MSTORE PUSH1 0x4 ADD PUSH2 0x134 SWAP1 PUSH2 0x472 JUMP JUMPDEST PUSH1 0x40 MLOAD DUP1 SWAP2 SUB SWAP1 REVERT JUMPDEST DUP1 PUSH1 0x0 DUP1 CALLER PUSH20 0xFFFFFFFFFFFFFFFFFFFFFFFFFFFFFFFFFFFFFFFF AND PUSH20 0xFFFFFFFFFFFFFFFFFFFFFFFFFFFFFFFFFFFFFFFF AND DUP2 MSTORE PUSH1 0x20 ADD SWAP1 DUP2 MSTORE PUSH1 0x20 ADD PUSH1 0x0 KECCAK256 PUSH1 0x0 DUP3 DUP3 DUP3 SWAP1 SLOAD SWAP1 PUSH2 0x100 EXP SWAP1 DIV PUSH1 0xFF AND PUSH2 0x197 SWAP2 SWAP1 PUSH2 0x4C1 JUMP JUMPDEST SWAP3 POP PUSH2 0x100 EXP DUP2 SLOAD DUP2 PUSH1 0xFF MUL NOT AND SWAP1 DUP4 PUSH1 0xFF AND MUL OR SWAP1 SSTORE POP DUP2 PUSH20 0xFFFFFFFFFFFFFFFFFFFFFFFFFFFFFFFFFFFFFFFF AND PUSH2 0x8FC DUP3 PUSH1 0xFF AND SWAP1 DUP2 ISZERO MUL SWAP1 PUSH1 0x40 MLOAD PUSH1 0x0 PUSH1 0x40 MLOAD DUP1 DUP4 SUB DUP2 DUP6 DUP9 DUP9 CALL SWAP4 POP POP POP POP ISZERO DUP1 ISZERO PUSH2 0x1F8 JUMPI RETURNDATASIZE PUSH1 0x0 DUP1 RETURNDATACOPY RETURNDATASIZE PUSH1 0x0 REVERT JUMPDEST POP POP POP JUMP JUMPDEST CALLVALUE PUSH1 0xFF AND CALLVALUE EQ PUSH2 0x210 JUMPI PUSH2 0x20F PUSH2 0x4F6 JUMP JUMPDEST JUMPDEST CALLVALUE PUSH1 0x0 DUP1 CALLER PUSH20 0xFFFFFFFFFFFFFFFFFFFFFFFFFFFFFFFFFFFFFFFF AND PUSH20 0xFFFFFFFFFFFFFFFFFFFFFFFFFFFFFFFFFFFFFFFF AND DUP2 MSTORE PUSH1 0x20 ADD SWAP1 DUP2 MSTORE PUSH1 0x20 ADD PUSH1 0x0 KECCAK256 PUSH1 0x0 DUP3 DUP3 DUP3 SWAP1 SLOAD SWAP1 PUSH2 0x100 EXP SWAP1 DIV PUSH1 0xFF AND PUSH2 0x26A SWAP2 SWAP1 PUSH2 0x525 JUMP JUMPDEST SWAP3 POP PUSH2 0x100 EXP DUP2 SLOAD DUP2 PUSH1 0xFF MUL NOT AND SWAP1 DUP4 PUSH1 0xFF AND MUL OR SWAP1 SSTORE POP JUMP JUMPDEST PUSH1 0x0 PUSH1 0x20 MSTORE DUP1 PUSH1 0x0 MSTORE PUSH1 0x40 PUSH1 0x0 KECCAK256 PUSH1 0x0 SWAP2 POP SLOAD SWAP1 PUSH2 0x100 EXP SWAP1 DIV PUSH1 0xFF AND DUP2 JUMP JUMPDEST PUSH1 0x0 DUP1 REVERT JUMPDEST PUSH1 0x0 PUSH20 0xFFFFFFFFFFFFFFFFFFFFFFFFFFFFFFFFFFFFFFFF DUP3 AND SWAP1 POP SWAP2 SWAP1 POP JUMP JUMPDEST PUSH1 0x0 PUSH2 0x2D4 DUP3 PUSH2 0x2A9 JUMP JUMPDEST SWAP1 POP SWAP2 SWAP1 POP JUMP JUMPDEST PUSH2 0x2E4 DUP2 PUSH2 0x2C9 JUMP JUMPDEST DUP2 EQ PUSH2 0x2EF JUMPI PUSH1 0x0 DUP1 REVERT JUMPDEST POP JUMP JUMPDEST PUSH1 0x0 DUP2 CALLDATALOAD SWAP1 POP PUSH2 0x301 DUP2 PUSH2 0x2DB JUMP JUMPDEST SWAP3 SWAP2 POP POP JUMP JUMPDEST PUSH1 0x0 PUSH1 0xFF DUP3 AND SWAP1 POP SWAP2 SWAP1 POP JUMP JUMPDEST PUSH2 0x31D DUP2 PUSH2 0x307 JUMP JUMPDEST DUP2 EQ PUSH2 0x328 JUMPI PUSH1 0x0 DUP1 REVERT JUMPDEST POP JUMP JUMPDEST PUSH1 0x0 DUP2 CALLDATALOAD SWAP1 POP PUSH2 0x33A DUP2 PUSH2 0x314 JUMP JUMPDEST SWAP3 SWAP2 POP POP JUMP JUMPDEST PUSH1 0x0 DUP1 PUSH1 0x40 DUP4 DUP6 SUB SLT ISZERO PUSH2 0x357 JUMPI PUSH2 0x356 PUSH2 0x2A4 JUMP JUMPDEST JUMPDEST PUSH1 0x0 PUSH2 0x365 DUP6 DUP3 DUP7 ADD PUSH2 0x2F2 JUMP JUMPDEST SWAP3 POP POP PUSH1 0x20 PUSH2 0x376 DUP6 DUP3 DUP7 ADD PUSH2 0x32B JUMP JUMPDEST SWAP2 POP POP SWAP3 POP SWAP3 SWAP1 POP JUMP JUMPDEST PUSH1 0x0 PUSH2 0x38B DUP3 PUSH2 0x2A9 JUMP JUMPDEST SWAP1 POP SWAP2 SWAP1 POP JUMP JUMPDEST PUSH2 0x39B DUP2 PUSH2 0x380 JUMP JUMPDEST DUP2 EQ PUSH2 0x3A6 JUMPI PUSH1 0x0 DUP1 REVERT JUMPDEST POP JUMP JUMPDEST PUSH1 0x0 DUP2 CALLDATALOAD SWAP1 POP PUSH2 0x3B8 DUP2 PUSH2 0x392 JUMP JUMPDEST SWAP3 SWAP2 POP POP JUMP JUMPDEST PUSH1 0x0 PUSH1 0x20 DUP3 DUP5 SUB SLT ISZERO PUSH2 0x3D4 JUMPI PUSH2 0x3D3 PUSH2 0x2A4 JUMP JUMPDEST JUMPDEST PUSH1 0x0 PUSH2 0x3E2 DUP5 DUP3 DUP6 ADD PUSH2 0x3A9 JUMP JUMPDEST SWAP2 POP POP SWAP3 SWAP2 POP POP JUMP JUMPDEST PUSH2 0x3F4 DUP2 PUSH2 0x307 JUMP JUMPDEST DUP3 MSTORE POP POP JUMP JUMPDEST PUSH1 0x0 PUSH1 0x20 DUP3 ADD SWAP1 POP PUSH2 0x40F PUSH1 0x0 DUP4 ADD DUP5 PUSH2 0x3EB JUMP JUMPDEST SWAP3 SWAP2 POP POP JUMP JUMPDEST PUSH1 0x0 DUP3 DUP3 MSTORE PUSH1 0x20 DUP3 ADD SWAP1 POP SWAP3 SWAP2 POP POP JUMP JUMPDEST PUSH32 0x4E6F7420656E6F7567682066756E64732C2061626F7274696E67000000000000 PUSH1 0x0 DUP3 ADD MSTORE POP JUMP JUMPDEST PUSH1 0x0 PUSH2 0x45C PUSH1 0x1A DUP4 PUSH2 0x415 JUMP JUMPDEST SWAP2 POP PUSH2 0x467 DUP3 PUSH2 0x426 JUMP JUMPDEST PUSH1 0x20 DUP3 ADD SWAP1 POP SWAP2 SWAP1 POP JUMP JUMPDEST PUSH1 0x0 PUSH1 0x20 DUP3 ADD SWAP1 POP DUP2 DUP2 SUB PUSH1 0x0 DUP4 ADD MSTORE PUSH2 0x48B DUP2 PUSH2 0x44F JUMP JUMPDEST SWAP1 POP SWAP2 SWAP1 POP JUMP JUMPDEST PUSH32 0x4E487B7100000000000000000000000000000000000000000000000000000000 PUSH1 0x0 MSTORE PUSH1 0x11 PUSH1 0x4 MSTORE PUSH1 0x24 PUSH1 0x0 REVERT JUMPDEST PUSH1 0x0 PUSH2 0x4CC DUP3 PUSH2 0x307 JUMP JUMPDEST SWAP2 POP PUSH2 0x4D7 DUP4 PUSH2 0x307 JUMP JUMPDEST SWAP3 POP DUP3 DUP3 SUB SWAP1 POP PUSH1 0xFF DUP2 GT ISZERO PUSH2 0x4F0 JUMPI PUSH2 0x4EF PUSH2 0x492 JUMP JUMPDEST JUMPDEST SWAP3 SWAP2 POP POP JUMP JUMPDEST PUSH32 0x4E487B7100000000000000000000000000000000000000000000000000000000 PUSH1 0x0 MSTORE PUSH1 0x1 PUSH1 0x4 MSTORE PUSH1 0x24 PUSH1 0x0 REVERT JUMPDEST PUSH1 0x0 PUSH2 0x530 DUP3 PUSH2 0x307 JUMP JUMPDEST SWAP2 POP PUSH2 0x53B DUP4 PUSH2 0x307 JUMP JUMPDEST SWAP3 POP DUP3 DUP3 ADD SWAP1 POP PUSH1 0xFF DUP2 GT ISZERO PUSH2 0x554 JUMPI PUSH2 0x553 PUSH2 0x492 JUMP JUMPDEST JUMPDEST SWAP3 SWAP2 POP POP JUMP INVALID LOG2 PUSH5 0x6970667358 0x22 SLT KECCAK256 SWAP8 TIMESTAMP 0xBB 0xC8 PUSH5 0xD51C26E988 0x25 PUSH1 0x6D SWAP10 0xA8 0xAF LOG1 0x25 DUP3 0xD6 DUP4 0xF9 0xBE CALLDATACOPY 0x4B SWAP13 CALL GT PUSH5 0x5C7C156473 PUSH16 0x6C634300081200330000000000000000 "
				},
				"gasEstimates": {
					"creation": {
						"codeDepositCost": "284800",
						"executionCost": "324",
						"totalCost": "285124"
					},
					"external": {
						"balanceReceived(address)": "2867",
						"receiveMoney()": "infinite",
						"withdrawMoney(address,uint8)": "infinite"
					}
				},
				"methodIdentifiers": {
					"balanceReceived(address)": "d18a42e1",
					"receiveMoney()": "6d26ec18",
					"withdrawMoney(address,uint8)": "67c114b8"
				}
			},
			"storageLayout": {
				"storage": [
					{
						"astId": 5,
						"contract": "Wallet/contracts/ExceptionRequire.sol:ExceptionRequire",
						"label": "balanceReceived",
						"offset": 0,
						"slot": "0",
						"type": "t_mapping(t_address,t_uint8)"
					}
				],
				"types": {
					"t_address": {
						"encoding": "inplace",
						"label": "address",
						"numberOfBytes": "20"
					},
					"t_mapping(t_address,t_uint8)": {
						"encoding": "mapping",
						"key": "t_address",
						"label": "mapping(address => uint8)",
						"numberOfBytes": "32",
						"value": "t_uint8"
					},
					"t_uint8": {
						"encoding": "inplace",
						"label": "uint8",
						"numberOfBytes": "1"
					}
				}
			},
			"userdoc": {
				"kind": "user",
				"methods": {},
				"version": 1
			}
		}
	}
}