{
	"contracts/MappingStruct.sol": {
		"MappingStruct": {
			"abi": [
				{
					"inputs": [
						{
							"internalType": "address",
							"name": "",
							"type": "address"
						}
					],
					"name": "balances",
					"outputs": [
						{
							"internalType": "uint256",
							"name": "totalBalance",
							"type": "uint256"
						},
						{
							"internalType": "uint256",
							"name": "numDeposits",
							"type": "uint256"
						},
						{
							"internalType": "uint256",
							"name": "numWithdrawals",
							"type": "uint256"
						}
					],
					"stateMutability": "view",
					"type": "function"
				},
				{
					"inputs": [],
					"name": "depositMoney",
					"outputs": [],
					"stateMutability": "payable",
					"type": "function"
				},
				{
					"inputs": [
						{
							"internalType": "address",
							"name": "_from",
							"type": "address"
						},
						{
							"internalType": "uint256",
							"name": "_numDeposit",
							"type": "uint256"
						}
					],
					"name": "getDepositNum",
					"outputs": [
						{
							"components": [
								{
									"internalType": "uint256",
									"name": "amount",
									"type": "uint256"
								},
								{
									"internalType": "uint256",
									"name": "timestamp",
									"type": "uint256"
								}
							],
							"internalType": "struct MappingStruct.Transaction",
							"name": "",
							"type": "tuple"
						}
					],
					"stateMutability": "view",
					"type": "function"
				},
				{
					"inputs": [
						{
							"internalType": "address payable",
							"name": "_to",
							"type": "address"
						},
						{
							"internalType": "uint256",
							"name": "_amount",
							"type": "uint256"
						}
					],
					"name": "withdrawMoney",
					"outputs": [],
					"stateMutability": "nonpayable",
					"type": "function"
				}
			],
			"devdoc": {
				"kind": "dev",
				"methods": {},
				"version": 1
			},
			"evm": {
				"assembly": "    /* \"contracts/MappingStruct.sol\":61:1323  contract MappingStruct {... */\n  mstore(0x40, 0x80)\n  callvalue\n  dup1\n  iszero\n  tag_1\n  jumpi\n  0x00\n  dup1\n  revert\ntag_1:\n  pop\n  dataSize(sub_0)\n  dup1\n  dataOffset(sub_0)\n  0x00\n  codecopy\n  0x00\n  return\nstop\n\nsub_0: assembly {\n        /* \"contracts/MappingStruct.sol\":61:1323  contract MappingStruct {... */\n      mstore(0x40, 0x80)\n      jumpi(tag_1, lt(calldatasize, 0x04))\n      shr(0xe0, calldataload(0x00))\n      dup1\n      0x16c05aa2\n      eq\n      tag_2\n      jumpi\n      dup1\n      0x27e235e3\n      eq\n      tag_3\n      jumpi\n      dup1\n      0x55e14fe6\n      eq\n      tag_4\n      jumpi\n      dup1\n      0xf274c897\n      eq\n      tag_5\n      jumpi\n    tag_1:\n      0x00\n      dup1\n      revert\n        /* \"contracts/MappingStruct.sol\":610:923  function depositMoney() public payable {... */\n    tag_2:\n      tag_6\n      tag_7\n      jump\t// in\n    tag_6:\n      stop\n        /* \"contracts/MappingStruct.sol\":390:433  mapping(address => Balance) public balances */\n    tag_3:\n      callvalue\n      dup1\n      iszero\n      tag_8\n      jumpi\n      0x00\n      dup1\n      revert\n    tag_8:\n      pop\n      tag_9\n      0x04\n      dup1\n      calldatasize\n      sub\n      dup2\n      add\n      swap1\n      tag_10\n      swap2\n      swap1\n      tag_11\n      jump\t// in\n    tag_10:\n      tag_12\n      jump\t// in\n    tag_9:\n      mload(0x40)\n      tag_13\n      swap4\n      swap3\n      swap2\n      swap1\n      tag_14\n      jump\t// in\n    tag_13:\n      mload(0x40)\n      dup1\n      swap2\n      sub\n      swap1\n      return\n        /* \"contracts/MappingStruct.sol\":442:602  function getDepositNum(address _from, uint _numDeposit) public view returns (Transaction memory) {... */\n    tag_4:\n      callvalue\n      dup1\n      iszero\n      tag_15\n      jumpi\n      0x00\n      dup1\n      revert\n    tag_15:\n      pop\n      tag_16\n      0x04\n      dup1\n      calldatasize\n      sub\n      dup2\n      add\n      swap1\n      tag_17\n      swap2\n      swap1\n      tag_18\n      jump\t// in\n    tag_17:\n      tag_19\n      jump\t// in\n    tag_16:\n      mload(0x40)\n      tag_20\n      swap2\n      swap1\n      tag_21\n      jump\t// in\n    tag_20:\n      mload(0x40)\n      dup1\n      swap2\n      sub\n      swap1\n      return\n        /* \"contracts/MappingStruct.sol\":931:1312  function withdrawMoney(address payable _to, uint _amount) public {... */\n    tag_5:\n      callvalue\n      dup1\n      iszero\n      tag_22\n      jumpi\n      0x00\n      dup1\n      revert\n    tag_22:\n      pop\n      tag_23\n      0x04\n      dup1\n      calldatasize\n      sub\n      dup2\n      add\n      swap1\n      tag_24\n      swap2\n      swap1\n      tag_25\n      jump\t// in\n    tag_24:\n      tag_26\n      jump\t// in\n    tag_23:\n      stop\n        /* \"contracts/MappingStruct.sol\":610:923  function depositMoney() public payable {... */\n    tag_7:\n        /* \"contracts/MappingStruct.sol\":697:706  msg.value */\n      callvalue\n        /* \"contracts/MappingStruct.sol\":660:668  balances */\n      0x00\n        /* \"contracts/MappingStruct.sol\":660:680  balances[msg.sender] */\n      dup1\n        /* \"contracts/MappingStruct.sol\":669:679  msg.sender */\n      caller\n        /* \"contracts/MappingStruct.sol\":660:680  balances[msg.sender] */\n      0xffffffffffffffffffffffffffffffffffffffff\n      and\n      0xffffffffffffffffffffffffffffffffffffffff\n      and\n      dup2\n      mstore\n      0x20\n      add\n      swap1\n      dup2\n      mstore\n      0x20\n      add\n      0x00\n      keccak256\n        /* \"contracts/MappingStruct.sol\":660:693  balances[msg.sender].totalBalance */\n      0x00\n      add\n      0x00\n        /* \"contracts/MappingStruct.sol\":660:706  balances[msg.sender].totalBalance += msg.value */\n      dup3\n      dup3\n      sload\n      tag_28\n      swap2\n      swap1\n      tag_29\n      jump\t// in\n    tag_28:\n      swap3\n      pop\n      pop\n      dup2\n      swap1\n      sstore\n      pop\n        /* \"contracts/MappingStruct.sol\":719:745  Transaction memory deposit */\n      0x00\n        /* \"contracts/MappingStruct.sol\":748:786  Transaction(msg.value,block.timestamp) */\n      mload(0x40)\n      dup1\n      0x40\n      add\n      0x40\n      mstore\n      dup1\n        /* \"contracts/MappingStruct.sol\":760:769  msg.value */\n      callvalue\n        /* \"contracts/MappingStruct.sol\":748:786  Transaction(msg.value,block.timestamp) */\n      dup2\n      mstore\n      0x20\n      add\n        /* \"contracts/MappingStruct.sol\":770:785  block.timestamp */\n      timestamp\n        /* \"contracts/MappingStruct.sol\":748:786  Transaction(msg.value,block.timestamp) */\n      dup2\n      mstore\n      pop\n        /* \"contracts/MappingStruct.sol\":719:786  Transaction memory deposit = Transaction(msg.value,block.timestamp) */\n      swap1\n      pop\n        /* \"contracts/MappingStruct.sol\":863:870  deposit */\n      dup1\n        /* \"contracts/MappingStruct.sol\":797:805  balances */\n      0x00\n        /* \"contracts/MappingStruct.sol\":797:817  balances[msg.sender] */\n      dup1\n        /* \"contracts/MappingStruct.sol\":806:816  msg.sender */\n      caller\n        /* \"contracts/MappingStruct.sol\":797:817  balances[msg.sender] */\n      0xffffffffffffffffffffffffffffffffffffffff\n      and\n      0xffffffffffffffffffffffffffffffffffffffff\n      and\n      dup2\n      mstore\n      0x20\n      add\n      swap1\n      dup2\n      mstore\n      0x20\n      add\n      0x00\n      keccak256\n        /* \"contracts/MappingStruct.sol\":797:826  balances[msg.sender].deposits */\n      0x02\n      add\n        /* \"contracts/MappingStruct.sol\":797:860  balances[msg.sender].deposits[balances[msg.sender].numDeposits] */\n      0x00\n        /* \"contracts/MappingStruct.sol\":827:835  balances */\n      dup1\n        /* \"contracts/MappingStruct.sol\":827:847  balances[msg.sender] */\n      0x00\n        /* \"contracts/MappingStruct.sol\":836:846  msg.sender */\n      caller\n        /* \"contracts/MappingStruct.sol\":827:847  balances[msg.sender] */\n      0xffffffffffffffffffffffffffffffffffffffff\n      and\n      0xffffffffffffffffffffffffffffffffffffffff\n      and\n      dup2\n      mstore\n      0x20\n      add\n      swap1\n      dup2\n      mstore\n      0x20\n      add\n      0x00\n      keccak256\n        /* \"contracts/MappingStruct.sol\":827:859  balances[msg.sender].numDeposits */\n      0x01\n      add\n      sload\n        /* \"contracts/MappingStruct.sol\":797:860  balances[msg.sender].deposits[balances[msg.sender].numDeposits] */\n      dup2\n      mstore\n      0x20\n      add\n      swap1\n      dup2\n      mstore\n      0x20\n      add\n      0x00\n      keccak256\n        /* \"contracts/MappingStruct.sol\":797:870  balances[msg.sender].deposits[balances[msg.sender].numDeposits] = deposit */\n      0x00\n      dup3\n      add\n      mload\n      dup2\n      0x00\n      add\n      sstore\n      0x20\n      dup3\n      add\n      mload\n      dup2\n      0x01\n      add\n      sstore\n      swap1\n      pop\n      pop\n        /* \"contracts/MappingStruct.sol\":881:889  balances */\n      0x00\n        /* \"contracts/MappingStruct.sol\":881:901  balances[msg.sender] */\n      dup1\n        /* \"contracts/MappingStruct.sol\":890:900  msg.sender */\n      caller\n        /* \"contracts/MappingStruct.sol\":881:901  balances[msg.sender] */\n      0xffffffffffffffffffffffffffffffffffffffff\n      and\n      0xffffffffffffffffffffffffffffffffffffffff\n      and\n      dup2\n      mstore\n      0x20\n      add\n      swap1\n      dup2\n      mstore\n      0x20\n      add\n      0x00\n      keccak256\n        /* \"contracts/MappingStruct.sol\":881:913  balances[msg.sender].numDeposits */\n      0x01\n      add\n      0x00\n        /* \"contracts/MappingStruct.sol\":881:915  balances[msg.sender].numDeposits++ */\n      dup2\n      sload\n      dup1\n      swap3\n      swap2\n      swap1\n      tag_30\n      swap1\n      tag_31\n      jump\t// in\n    tag_30:\n      swap2\n      swap1\n      pop\n      sstore\n      pop\n        /* \"contracts/MappingStruct.sol\":649:923  {... */\n      pop\n        /* \"contracts/MappingStruct.sol\":610:923  function depositMoney() public payable {... */\n      jump\t// out\n        /* \"contracts/MappingStruct.sol\":390:433  mapping(address => Balance) public balances */\n    tag_12:\n      mstore(0x20, 0x00)\n      dup1\n      0x00\n      mstore\n      keccak256(0x00, 0x40)\n      0x00\n      swap2\n      pop\n      swap1\n      pop\n      dup1\n      0x00\n      add\n      sload\n      swap1\n      dup1\n      0x01\n      add\n      sload\n      swap1\n      dup1\n      0x03\n      add\n      sload\n      swap1\n      pop\n      dup4\n      jump\t// out\n        /* \"contracts/MappingStruct.sol\":442:602  function getDepositNum(address _from, uint _numDeposit) public view returns (Transaction memory) {... */\n    tag_19:\n        /* \"contracts/MappingStruct.sol\":519:537  Transaction memory */\n      tag_32\n      tag_33\n      jump\t// in\n    tag_32:\n        /* \"contracts/MappingStruct.sol\":557:565  balances */\n      0x00\n        /* \"contracts/MappingStruct.sol\":557:572  balances[_from] */\n      dup1\n        /* \"contracts/MappingStruct.sol\":566:571  _from */\n      dup5\n        /* \"contracts/MappingStruct.sol\":557:572  balances[_from] */\n      0xffffffffffffffffffffffffffffffffffffffff\n      and\n      0xffffffffffffffffffffffffffffffffffffffff\n      and\n      dup2\n      mstore\n      0x20\n      add\n      swap1\n      dup2\n      mstore\n      0x20\n      add\n      0x00\n      keccak256\n        /* \"contracts/MappingStruct.sol\":557:581  balances[_from].deposits */\n      0x02\n      add\n        /* \"contracts/MappingStruct.sol\":557:594  balances[_from].deposits[_numDeposit] */\n      0x00\n        /* \"contracts/MappingStruct.sol\":582:593  _numDeposit */\n      dup4\n        /* \"contracts/MappingStruct.sol\":557:594  balances[_from].deposits[_numDeposit] */\n      dup2\n      mstore\n      0x20\n      add\n      swap1\n      dup2\n      mstore\n      0x20\n      add\n      0x00\n      keccak256\n        /* \"contracts/MappingStruct.sol\":550:594  return balances[_from].deposits[_numDeposit] */\n      mload(0x40)\n      dup1\n      0x40\n      add\n      0x40\n      mstore\n      swap1\n      dup2\n      0x00\n      dup3\n      add\n      sload\n      dup2\n      mstore\n      0x20\n      add\n      0x01\n      dup3\n      add\n      sload\n      dup2\n      mstore\n      pop\n      pop\n      swap1\n      pop\n        /* \"contracts/MappingStruct.sol\":442:602  function getDepositNum(address _from, uint _numDeposit) public view returns (Transaction memory) {... */\n      swap3\n      swap2\n      pop\n      pop\n      jump\t// out\n        /* \"contracts/MappingStruct.sol\":931:1312  function withdrawMoney(address payable _to, uint _amount) public {... */\n    tag_26:\n        /* \"contracts/MappingStruct.sol\":1043:1050  _amount */\n      dup1\n        /* \"contracts/MappingStruct.sol\":1007:1015  balances */\n      0x00\n        /* \"contracts/MappingStruct.sol\":1007:1027  balances[msg.sender] */\n      dup1\n        /* \"contracts/MappingStruct.sol\":1016:1026  msg.sender */\n      caller\n        /* \"contracts/MappingStruct.sol\":1007:1027  balances[msg.sender] */\n      0xffffffffffffffffffffffffffffffffffffffff\n      and\n      0xffffffffffffffffffffffffffffffffffffffff\n      and\n      dup2\n      mstore\n      0x20\n      add\n      swap1\n      dup2\n      mstore\n      0x20\n      add\n      0x00\n      keccak256\n        /* \"contracts/MappingStruct.sol\":1007:1040  balances[msg.sender].totalBalance */\n      0x00\n      add\n        /* \"contracts/MappingStruct.sol\":1007:1050  balances[msg.sender].totalBalance = _amount */\n      dup2\n      swap1\n      sstore\n      pop\n        /* \"contracts/MappingStruct.sol\":1061:1090  Transaction memory withdrawal */\n      0x00\n        /* \"contracts/MappingStruct.sol\":1093:1129  Transaction(_amount,block.timestamp) */\n      mload(0x40)\n      dup1\n      0x40\n      add\n      0x40\n      mstore\n      dup1\n        /* \"contracts/MappingStruct.sol\":1105:1112  _amount */\n      dup4\n        /* \"contracts/MappingStruct.sol\":1093:1129  Transaction(_amount,block.timestamp) */\n      dup2\n      mstore\n      0x20\n      add\n        /* \"contracts/MappingStruct.sol\":1113:1128  block.timestamp */\n      timestamp\n        /* \"contracts/MappingStruct.sol\":1093:1129  Transaction(_amount,block.timestamp) */\n      dup2\n      mstore\n      pop\n        /* \"contracts/MappingStruct.sol\":1061:1129  Transaction memory withdrawal = Transaction(_amount,block.timestamp) */\n      swap1\n      pop\n        /* \"contracts/MappingStruct.sol\":1212:1222  withdrawal */\n      dup1\n        /* \"contracts/MappingStruct.sol\":1140:1148  balances */\n      0x00\n        /* \"contracts/MappingStruct.sol\":1140:1160  balances[msg.sender] */\n      dup1\n        /* \"contracts/MappingStruct.sol\":1149:1159  msg.sender */\n      caller\n        /* \"contracts/MappingStruct.sol\":1140:1160  balances[msg.sender] */\n      0xffffffffffffffffffffffffffffffffffffffff\n      and\n      0xffffffffffffffffffffffffffffffffffffffff\n      and\n      dup2\n      mstore\n      0x20\n      add\n      swap1\n      dup2\n      mstore\n      0x20\n      add\n      0x00\n      keccak256\n        /* \"contracts/MappingStruct.sol\":1140:1172  balances[msg.sender].withdrawals */\n      0x04\n      add\n        /* \"contracts/MappingStruct.sol\":1140:1209  balances[msg.sender].withdrawals[balances[msg.sender].numWithdrawals] */\n      0x00\n        /* \"contracts/MappingStruct.sol\":1173:1181  balances */\n      dup1\n        /* \"contracts/MappingStruct.sol\":1173:1193  balances[msg.sender] */\n      0x00\n        /* \"contracts/MappingStruct.sol\":1182:1192  msg.sender */\n      caller\n        /* \"contracts/MappingStruct.sol\":1173:1193  balances[msg.sender] */\n      0xffffffffffffffffffffffffffffffffffffffff\n      and\n      0xffffffffffffffffffffffffffffffffffffffff\n      and\n      dup2\n      mstore\n      0x20\n      add\n      swap1\n      dup2\n      mstore\n      0x20\n      add\n      0x00\n      keccak256\n        /* \"contracts/MappingStruct.sol\":1173:1208  balances[msg.sender].numWithdrawals */\n      0x03\n      add\n      sload\n        /* \"contracts/MappingStruct.sol\":1140:1209  balances[msg.sender].withdrawals[balances[msg.sender].numWithdrawals] */\n      dup2\n      mstore\n      0x20\n      add\n      swap1\n      dup2\n      mstore\n      0x20\n      add\n      0x00\n      keccak256\n        /* \"contracts/MappingStruct.sol\":1140:1222  balances[msg.sender].withdrawals[balances[msg.sender].numWithdrawals] = withdrawal */\n      0x00\n      dup3\n      add\n      mload\n      dup2\n      0x00\n      add\n      sstore\n      0x20\n      dup3\n      add\n      mload\n      dup2\n      0x01\n      add\n      sstore\n      swap1\n      pop\n      pop\n        /* \"contracts/MappingStruct.sol\":1233:1241  balances */\n      0x00\n        /* \"contracts/MappingStruct.sol\":1233:1253  balances[msg.sender] */\n      dup1\n        /* \"contracts/MappingStruct.sol\":1242:1252  msg.sender */\n      caller\n        /* \"contracts/MappingStruct.sol\":1233:1253  balances[msg.sender] */\n      0xffffffffffffffffffffffffffffffffffffffff\n      and\n      0xffffffffffffffffffffffffffffffffffffffff\n      and\n      dup2\n      mstore\n      0x20\n      add\n      swap1\n      dup2\n      mstore\n      0x20\n      add\n      0x00\n      keccak256\n        /* \"contracts/MappingStruct.sol\":1233:1268  balances[msg.sender].numWithdrawals */\n      0x03\n      add\n      0x00\n        /* \"contracts/MappingStruct.sol\":1233:1270  balances[msg.sender].numWithdrawals++ */\n      dup2\n      sload\n      dup1\n      swap3\n      swap2\n      swap1\n      tag_36\n      swap1\n      tag_31\n      jump\t// in\n    tag_36:\n      swap2\n      swap1\n      pop\n      sstore\n      pop\n        /* \"contracts/MappingStruct.sol\":1283:1286  _to */\n      dup3\n        /* \"contracts/MappingStruct.sol\":1283:1295  _to.transfer */\n      0xffffffffffffffffffffffffffffffffffffffff\n      and\n        /* \"contracts/MappingStruct.sol\":1283:1304  _to.transfer(_amount) */\n      0x08fc\n        /* \"contracts/MappingStruct.sol\":1296:1303  _amount */\n      dup4\n        /* \"contracts/MappingStruct.sol\":1283:1304  _to.transfer(_amount) */\n      swap1\n      dup2\n      iszero\n      mul\n      swap1\n      mload(0x40)\n      0x00\n      mload(0x40)\n      dup1\n      dup4\n      sub\n      dup2\n      dup6\n      dup9\n      dup9\n      call\n      swap4\n      pop\n      pop\n      pop\n      pop\n      iszero\n      dup1\n      iszero\n      tag_38\n      jumpi\n      returndatasize\n      0x00\n      dup1\n      returndatacopy\n      revert(0x00, returndatasize)\n    tag_38:\n      pop\n        /* \"contracts/MappingStruct.sol\":996:1312  {... */\n      pop\n        /* \"contracts/MappingStruct.sol\":931:1312  function withdrawMoney(address payable _to, uint _amount) public {... */\n      pop\n      pop\n      jump\t// out\n    tag_33:\n      mload(0x40)\n      dup1\n      0x40\n      add\n      0x40\n      mstore\n      dup1\n      0x00\n      dup2\n      mstore\n      0x20\n      add\n      0x00\n      dup2\n      mstore\n      pop\n      swap1\n      jump\t// out\n        /* \"#utility.yul\":88:205   */\n    tag_40:\n        /* \"#utility.yul\":197:198   */\n      0x00\n        /* \"#utility.yul\":194:195   */\n      dup1\n        /* \"#utility.yul\":187:199   */\n      revert\n        /* \"#utility.yul\":334:460   */\n    tag_42:\n        /* \"#utility.yul\":371:378   */\n      0x00\n        /* \"#utility.yul\":411:453   */\n      0xffffffffffffffffffffffffffffffffffffffff\n        /* \"#utility.yul\":404:409   */\n      dup3\n        /* \"#utility.yul\":400:454   */\n      and\n        /* \"#utility.yul\":389:454   */\n      swap1\n      pop\n        /* \"#utility.yul\":334:460   */\n      swap2\n      swap1\n      pop\n      jump\t// out\n        /* \"#utility.yul\":466:562   */\n    tag_43:\n        /* \"#utility.yul\":503:510   */\n      0x00\n        /* \"#utility.yul\":532:556   */\n      tag_62\n        /* \"#utility.yul\":550:555   */\n      dup3\n        /* \"#utility.yul\":532:556   */\n      tag_42\n      jump\t// in\n    tag_62:\n        /* \"#utility.yul\":521:556   */\n      swap1\n      pop\n        /* \"#utility.yul\":466:562   */\n      swap2\n      swap1\n      pop\n      jump\t// out\n        /* \"#utility.yul\":568:690   */\n    tag_44:\n        /* \"#utility.yul\":641:665   */\n      tag_64\n        /* \"#utility.yul\":659:664   */\n      dup2\n        /* \"#utility.yul\":641:665   */\n      tag_43\n      jump\t// in\n    tag_64:\n        /* \"#utility.yul\":634:639   */\n      dup2\n        /* \"#utility.yul\":631:666   */\n      eq\n        /* \"#utility.yul\":621:684   */\n      tag_65\n      jumpi\n        /* \"#utility.yul\":680:681   */\n      0x00\n        /* \"#utility.yul\":677:678   */\n      dup1\n        /* \"#utility.yul\":670:682   */\n      revert\n        /* \"#utility.yul\":621:684   */\n    tag_65:\n        /* \"#utility.yul\":568:690   */\n      pop\n      jump\t// out\n        /* \"#utility.yul\":696:835   */\n    tag_45:\n        /* \"#utility.yul\":742:747   */\n      0x00\n        /* \"#utility.yul\":780:786   */\n      dup2\n        /* \"#utility.yul\":767:787   */\n      calldataload\n        /* \"#utility.yul\":758:787   */\n      swap1\n      pop\n        /* \"#utility.yul\":796:829   */\n      tag_67\n        /* \"#utility.yul\":823:828   */\n      dup2\n        /* \"#utility.yul\":796:829   */\n      tag_44\n      jump\t// in\n    tag_67:\n        /* \"#utility.yul\":696:835   */\n      swap3\n      swap2\n      pop\n      pop\n      jump\t// out\n        /* \"#utility.yul\":841:1170   */\n    tag_11:\n        /* \"#utility.yul\":900:906   */\n      0x00\n        /* \"#utility.yul\":949:951   */\n      0x20\n        /* \"#utility.yul\":937:946   */\n      dup3\n        /* \"#utility.yul\":928:935   */\n      dup5\n        /* \"#utility.yul\":924:947   */\n      sub\n        /* \"#utility.yul\":920:952   */\n      slt\n        /* \"#utility.yul\":917:1036   */\n      iszero\n      tag_69\n      jumpi\n        /* \"#utility.yul\":955:1034   */\n      tag_70\n      tag_40\n      jump\t// in\n    tag_70:\n        /* \"#utility.yul\":917:1036   */\n    tag_69:\n        /* \"#utility.yul\":1075:1076   */\n      0x00\n        /* \"#utility.yul\":1100:1153   */\n      tag_71\n        /* \"#utility.yul\":1145:1152   */\n      dup5\n        /* \"#utility.yul\":1136:1142   */\n      dup3\n        /* \"#utility.yul\":1125:1134   */\n      dup6\n        /* \"#utility.yul\":1121:1143   */\n      add\n        /* \"#utility.yul\":1100:1153   */\n      tag_45\n      jump\t// in\n    tag_71:\n        /* \"#utility.yul\":1090:1153   */\n      swap2\n      pop\n        /* \"#utility.yul\":1046:1163   */\n      pop\n        /* \"#utility.yul\":841:1170   */\n      swap3\n      swap2\n      pop\n      pop\n      jump\t// out\n        /* \"#utility.yul\":1176:1253   */\n    tag_46:\n        /* \"#utility.yul\":1213:1220   */\n      0x00\n        /* \"#utility.yul\":1242:1247   */\n      dup2\n        /* \"#utility.yul\":1231:1247   */\n      swap1\n      pop\n        /* \"#utility.yul\":1176:1253   */\n      swap2\n      swap1\n      pop\n      jump\t// out\n        /* \"#utility.yul\":1259:1377   */\n    tag_47:\n        /* \"#utility.yul\":1346:1370   */\n      tag_74\n        /* \"#utility.yul\":1364:1369   */\n      dup2\n        /* \"#utility.yul\":1346:1370   */\n      tag_46\n      jump\t// in\n    tag_74:\n        /* \"#utility.yul\":1341:1344   */\n      dup3\n        /* \"#utility.yul\":1334:1371   */\n      mstore\n        /* \"#utility.yul\":1259:1377   */\n      pop\n      pop\n      jump\t// out\n        /* \"#utility.yul\":1383:1825   */\n    tag_14:\n        /* \"#utility.yul\":1532:1536   */\n      0x00\n        /* \"#utility.yul\":1570:1572   */\n      0x60\n        /* \"#utility.yul\":1559:1568   */\n      dup3\n        /* \"#utility.yul\":1555:1573   */\n      add\n        /* \"#utility.yul\":1547:1573   */\n      swap1\n      pop\n        /* \"#utility.yul\":1583:1654   */\n      tag_76\n        /* \"#utility.yul\":1651:1652   */\n      0x00\n        /* \"#utility.yul\":1640:1649   */\n      dup4\n        /* \"#utility.yul\":1636:1653   */\n      add\n        /* \"#utility.yul\":1627:1633   */\n      dup7\n        /* \"#utility.yul\":1583:1654   */\n      tag_47\n      jump\t// in\n    tag_76:\n        /* \"#utility.yul\":1664:1736   */\n      tag_77\n        /* \"#utility.yul\":1732:1734   */\n      0x20\n        /* \"#utility.yul\":1721:1730   */\n      dup4\n        /* \"#utility.yul\":1717:1735   */\n      add\n        /* \"#utility.yul\":1708:1714   */\n      dup6\n        /* \"#utility.yul\":1664:1736   */\n      tag_47\n      jump\t// in\n    tag_77:\n        /* \"#utility.yul\":1746:1818   */\n      tag_78\n        /* \"#utility.yul\":1814:1816   */\n      0x40\n        /* \"#utility.yul\":1803:1812   */\n      dup4\n        /* \"#utility.yul\":1799:1817   */\n      add\n        /* \"#utility.yul\":1790:1796   */\n      dup5\n        /* \"#utility.yul\":1746:1818   */\n      tag_47\n      jump\t// in\n    tag_78:\n        /* \"#utility.yul\":1383:1825   */\n      swap5\n      swap4\n      pop\n      pop\n      pop\n      pop\n      jump\t// out\n        /* \"#utility.yul\":1831:1953   */\n    tag_48:\n        /* \"#utility.yul\":1904:1928   */\n      tag_80\n        /* \"#utility.yul\":1922:1927   */\n      dup2\n        /* \"#utility.yul\":1904:1928   */\n      tag_46\n      jump\t// in\n    tag_80:\n        /* \"#utility.yul\":1897:1902   */\n      dup2\n        /* \"#utility.yul\":1894:1929   */\n      eq\n        /* \"#utility.yul\":1884:1947   */\n      tag_81\n      jumpi\n        /* \"#utility.yul\":1943:1944   */\n      0x00\n        /* \"#utility.yul\":1940:1941   */\n      dup1\n        /* \"#utility.yul\":1933:1945   */\n      revert\n        /* \"#utility.yul\":1884:1947   */\n    tag_81:\n        /* \"#utility.yul\":1831:1953   */\n      pop\n      jump\t// out\n        /* \"#utility.yul\":1959:2098   */\n    tag_49:\n        /* \"#utility.yul\":2005:2010   */\n      0x00\n        /* \"#utility.yul\":2043:2049   */\n      dup2\n        /* \"#utility.yul\":2030:2050   */\n      calldataload\n        /* \"#utility.yul\":2021:2050   */\n      swap1\n      pop\n        /* \"#utility.yul\":2059:2092   */\n      tag_83\n        /* \"#utility.yul\":2086:2091   */\n      dup2\n        /* \"#utility.yul\":2059:2092   */\n      tag_48\n      jump\t// in\n    tag_83:\n        /* \"#utility.yul\":1959:2098   */\n      swap3\n      swap2\n      pop\n      pop\n      jump\t// out\n        /* \"#utility.yul\":2104:2578   */\n    tag_18:\n        /* \"#utility.yul\":2172:2178   */\n      0x00\n        /* \"#utility.yul\":2180:2186   */\n      dup1\n        /* \"#utility.yul\":2229:2231   */\n      0x40\n        /* \"#utility.yul\":2217:2226   */\n      dup4\n        /* \"#utility.yul\":2208:2215   */\n      dup6\n        /* \"#utility.yul\":2204:2227   */\n      sub\n        /* \"#utility.yul\":2200:2232   */\n      slt\n        /* \"#utility.yul\":2197:2316   */\n      iszero\n      tag_85\n      jumpi\n        /* \"#utility.yul\":2235:2314   */\n      tag_86\n      tag_40\n      jump\t// in\n    tag_86:\n        /* \"#utility.yul\":2197:2316   */\n    tag_85:\n        /* \"#utility.yul\":2355:2356   */\n      0x00\n        /* \"#utility.yul\":2380:2433   */\n      tag_87\n        /* \"#utility.yul\":2425:2432   */\n      dup6\n        /* \"#utility.yul\":2416:2422   */\n      dup3\n        /* \"#utility.yul\":2405:2414   */\n      dup7\n        /* \"#utility.yul\":2401:2423   */\n      add\n        /* \"#utility.yul\":2380:2433   */\n      tag_45\n      jump\t// in\n    tag_87:\n        /* \"#utility.yul\":2370:2433   */\n      swap3\n      pop\n        /* \"#utility.yul\":2326:2443   */\n      pop\n        /* \"#utility.yul\":2482:2484   */\n      0x20\n        /* \"#utility.yul\":2508:2561   */\n      tag_88\n        /* \"#utility.yul\":2553:2560   */\n      dup6\n        /* \"#utility.yul\":2544:2550   */\n      dup3\n        /* \"#utility.yul\":2533:2542   */\n      dup7\n        /* \"#utility.yul\":2529:2551   */\n      add\n        /* \"#utility.yul\":2508:2561   */\n      tag_49\n      jump\t// in\n    tag_88:\n        /* \"#utility.yul\":2498:2561   */\n      swap2\n      pop\n        /* \"#utility.yul\":2453:2571   */\n      pop\n        /* \"#utility.yul\":2104:2578   */\n      swap3\n      pop\n      swap3\n      swap1\n      pop\n      jump\t// out\n        /* \"#utility.yul\":2584:2692   */\n    tag_50:\n        /* \"#utility.yul\":2661:2685   */\n      tag_90\n        /* \"#utility.yul\":2679:2684   */\n      dup2\n        /* \"#utility.yul\":2661:2685   */\n      tag_46\n      jump\t// in\n    tag_90:\n        /* \"#utility.yul\":2656:2659   */\n      dup3\n        /* \"#utility.yul\":2649:2686   */\n      mstore\n        /* \"#utility.yul\":2584:2692   */\n      pop\n      pop\n      jump\t// out\n        /* \"#utility.yul\":2774:3290   */\n    tag_51:\n        /* \"#utility.yul\":2923:2927   */\n      0x40\n        /* \"#utility.yul\":2918:2921   */\n      dup3\n        /* \"#utility.yul\":2914:2928   */\n      add\n        /* \"#utility.yul\":3012:3016   */\n      0x00\n        /* \"#utility.yul\":3005:3010   */\n      dup3\n        /* \"#utility.yul\":3001:3017   */\n      add\n        /* \"#utility.yul\":2995:3018   */\n      mload\n        /* \"#utility.yul\":3031:3094   */\n      tag_92\n        /* \"#utility.yul\":3088:3092   */\n      0x00\n        /* \"#utility.yul\":3083:3086   */\n      dup6\n        /* \"#utility.yul\":3079:3093   */\n      add\n        /* \"#utility.yul\":3065:3077   */\n      dup3\n        /* \"#utility.yul\":3031:3094   */\n      tag_50\n      jump\t// in\n    tag_92:\n        /* \"#utility.yul\":2938:3104   */\n      pop\n        /* \"#utility.yul\":3191:3195   */\n      0x20\n        /* \"#utility.yul\":3184:3189   */\n      dup3\n        /* \"#utility.yul\":3180:3196   */\n      add\n        /* \"#utility.yul\":3174:3197   */\n      mload\n        /* \"#utility.yul\":3210:3273   */\n      tag_93\n        /* \"#utility.yul\":3267:3271   */\n      0x20\n        /* \"#utility.yul\":3262:3265   */\n      dup6\n        /* \"#utility.yul\":3258:3272   */\n      add\n        /* \"#utility.yul\":3244:3256   */\n      dup3\n        /* \"#utility.yul\":3210:3273   */\n      tag_50\n      jump\t// in\n    tag_93:\n        /* \"#utility.yul\":3114:3283   */\n      pop\n        /* \"#utility.yul\":2892:3290   */\n      pop\n        /* \"#utility.yul\":2774:3290   */\n      pop\n      pop\n      jump\t// out\n        /* \"#utility.yul\":3296:3622   */\n    tag_21:\n        /* \"#utility.yul\":3441:3445   */\n      0x00\n        /* \"#utility.yul\":3479:3481   */\n      0x40\n        /* \"#utility.yul\":3468:3477   */\n      dup3\n        /* \"#utility.yul\":3464:3482   */\n      add\n        /* \"#utility.yul\":3456:3482   */\n      swap1\n      pop\n        /* \"#utility.yul\":3492:3615   */\n      tag_95\n        /* \"#utility.yul\":3612:3613   */\n      0x00\n        /* \"#utility.yul\":3601:3610   */\n      dup4\n        /* \"#utility.yul\":3597:3614   */\n      add\n        /* \"#utility.yul\":3588:3594   */\n      dup5\n        /* \"#utility.yul\":3492:3615   */\n      tag_51\n      jump\t// in\n    tag_95:\n        /* \"#utility.yul\":3296:3622   */\n      swap3\n      swap2\n      pop\n      pop\n      jump\t// out\n        /* \"#utility.yul\":3628:3732   */\n    tag_52:\n        /* \"#utility.yul\":3673:3680   */\n      0x00\n        /* \"#utility.yul\":3702:3726   */\n      tag_97\n        /* \"#utility.yul\":3720:3725   */\n      dup3\n        /* \"#utility.yul\":3702:3726   */\n      tag_42\n      jump\t// in\n    tag_97:\n        /* \"#utility.yul\":3691:3726   */\n      swap1\n      pop\n        /* \"#utility.yul\":3628:3732   */\n      swap2\n      swap1\n      pop\n      jump\t// out\n        /* \"#utility.yul\":3738:3876   */\n    tag_53:\n        /* \"#utility.yul\":3819:3851   */\n      tag_99\n        /* \"#utility.yul\":3845:3850   */\n      dup2\n        /* \"#utility.yul\":3819:3851   */\n      tag_52\n      jump\t// in\n    tag_99:\n        /* \"#utility.yul\":3812:3817   */\n      dup2\n        /* \"#utility.yul\":3809:3852   */\n      eq\n        /* \"#utility.yul\":3799:3870   */\n      tag_100\n      jumpi\n        /* \"#utility.yul\":3866:3867   */\n      0x00\n        /* \"#utility.yul\":3863:3864   */\n      dup1\n        /* \"#utility.yul\":3856:3868   */\n      revert\n        /* \"#utility.yul\":3799:3870   */\n    tag_100:\n        /* \"#utility.yul\":3738:3876   */\n      pop\n      jump\t// out\n        /* \"#utility.yul\":3882:4037   */\n    tag_54:\n        /* \"#utility.yul\":3936:3941   */\n      0x00\n        /* \"#utility.yul\":3974:3980   */\n      dup2\n        /* \"#utility.yul\":3961:3981   */\n      calldataload\n        /* \"#utility.yul\":3952:3981   */\n      swap1\n      pop\n        /* \"#utility.yul\":3990:4031   */\n      tag_102\n        /* \"#utility.yul\":4025:4030   */\n      dup2\n        /* \"#utility.yul\":3990:4031   */\n      tag_53\n      jump\t// in\n    tag_102:\n        /* \"#utility.yul\":3882:4037   */\n      swap3\n      swap2\n      pop\n      pop\n      jump\t// out\n        /* \"#utility.yul\":4043:4533   */\n    tag_25:\n        /* \"#utility.yul\":4119:4125   */\n      0x00\n        /* \"#utility.yul\":4127:4133   */\n      dup1\n        /* \"#utility.yul\":4176:4178   */\n      0x40\n        /* \"#utility.yul\":4164:4173   */\n      dup4\n        /* \"#utility.yul\":4155:4162   */\n      dup6\n        /* \"#utility.yul\":4151:4174   */\n      sub\n        /* \"#utility.yul\":4147:4179   */\n      slt\n        /* \"#utility.yul\":4144:4263   */\n      iszero\n      tag_104\n      jumpi\n        /* \"#utility.yul\":4182:4261   */\n      tag_105\n      tag_40\n      jump\t// in\n    tag_105:\n        /* \"#utility.yul\":4144:4263   */\n    tag_104:\n        /* \"#utility.yul\":4302:4303   */\n      0x00\n        /* \"#utility.yul\":4327:4388   */\n      tag_106\n        /* \"#utility.yul\":4380:4387   */\n      dup6\n        /* \"#utility.yul\":4371:4377   */\n      dup3\n        /* \"#utility.yul\":4360:4369   */\n      dup7\n        /* \"#utility.yul\":4356:4378   */\n      add\n        /* \"#utility.yul\":4327:4388   */\n      tag_54\n      jump\t// in\n    tag_106:\n        /* \"#utility.yul\":4317:4388   */\n      swap3\n      pop\n        /* \"#utility.yul\":4273:4398   */\n      pop\n        /* \"#utility.yul\":4437:4439   */\n      0x20\n        /* \"#utility.yul\":4463:4516   */\n      tag_107\n        /* \"#utility.yul\":4508:4515   */\n      dup6\n        /* \"#utility.yul\":4499:4505   */\n      dup3\n        /* \"#utility.yul\":4488:4497   */\n      dup7\n        /* \"#utility.yul\":4484:4506   */\n      add\n        /* \"#utility.yul\":4463:4516   */\n      tag_49\n      jump\t// in\n    tag_107:\n        /* \"#utility.yul\":4453:4516   */\n      swap2\n      pop\n        /* \"#utility.yul\":4408:4526   */\n      pop\n        /* \"#utility.yul\":4043:4533   */\n      swap3\n      pop\n      swap3\n      swap1\n      pop\n      jump\t// out\n        /* \"#utility.yul\":4539:4719   */\n    tag_55:\n        /* \"#utility.yul\":4587:4664   */\n      0x4e487b7100000000000000000000000000000000000000000000000000000000\n        /* \"#utility.yul\":4584:4585   */\n      0x00\n        /* \"#utility.yul\":4577:4665   */\n      mstore\n        /* \"#utility.yul\":4684:4688   */\n      0x11\n        /* \"#utility.yul\":4681:4682   */\n      0x04\n        /* \"#utility.yul\":4674:4689   */\n      mstore\n        /* \"#utility.yul\":4708:4712   */\n      0x24\n        /* \"#utility.yul\":4705:4706   */\n      0x00\n        /* \"#utility.yul\":4698:4713   */\n      revert\n        /* \"#utility.yul\":4725:4916   */\n    tag_29:\n        /* \"#utility.yul\":4765:4768   */\n      0x00\n        /* \"#utility.yul\":4784:4804   */\n      tag_110\n        /* \"#utility.yul\":4802:4803   */\n      dup3\n        /* \"#utility.yul\":4784:4804   */\n      tag_46\n      jump\t// in\n    tag_110:\n        /* \"#utility.yul\":4779:4804   */\n      swap2\n      pop\n        /* \"#utility.yul\":4818:4838   */\n      tag_111\n        /* \"#utility.yul\":4836:4837   */\n      dup4\n        /* \"#utility.yul\":4818:4838   */\n      tag_46\n      jump\t// in\n    tag_111:\n        /* \"#utility.yul\":4813:4838   */\n      swap3\n      pop\n        /* \"#utility.yul\":4861:4862   */\n      dup3\n        /* \"#utility.yul\":4858:4859   */\n      dup3\n        /* \"#utility.yul\":4854:4863   */\n      add\n        /* \"#utility.yul\":4847:4863   */\n      swap1\n      pop\n        /* \"#utility.yul\":4882:4885   */\n      dup1\n        /* \"#utility.yul\":4879:4880   */\n      dup3\n        /* \"#utility.yul\":4876:4886   */\n      gt\n        /* \"#utility.yul\":4873:4909   */\n      iszero\n      tag_112\n      jumpi\n        /* \"#utility.yul\":4889:4907   */\n      tag_113\n      tag_55\n      jump\t// in\n    tag_113:\n        /* \"#utility.yul\":4873:4909   */\n    tag_112:\n        /* \"#utility.yul\":4725:4916   */\n      swap3\n      swap2\n      pop\n      pop\n      jump\t// out\n        /* \"#utility.yul\":4922:5155   */\n    tag_31:\n        /* \"#utility.yul\":4961:4964   */\n      0x00\n        /* \"#utility.yul\":4984:5008   */\n      tag_115\n        /* \"#utility.yul\":5002:5007   */\n      dup3\n        /* \"#utility.yul\":4984:5008   */\n      tag_46\n      jump\t// in\n    tag_115:\n        /* \"#utility.yul\":4975:5008   */\n      swap2\n      pop\n        /* \"#utility.yul\":5030:5096   */\n      0xffffffffffffffffffffffffffffffffffffffffffffffffffffffffffffffff\n        /* \"#utility.yul\":5023:5028   */\n      dup3\n        /* \"#utility.yul\":5020:5097   */\n      sub\n        /* \"#utility.yul\":5017:5120   */\n      tag_116\n      jumpi\n        /* \"#utility.yul\":5100:5118   */\n      tag_117\n      tag_55\n      jump\t// in\n    tag_117:\n        /* \"#utility.yul\":5017:5120   */\n    tag_116:\n        /* \"#utility.yul\":5147:5148   */\n      0x01\n        /* \"#utility.yul\":5140:5145   */\n      dup3\n        /* \"#utility.yul\":5136:5149   */\n      add\n        /* \"#utility.yul\":5129:5149   */\n      swap1\n      pop\n        /* \"#utility.yul\":4922:5155   */\n      swap2\n      swap1\n      pop\n      jump\t// out\n\n    auxdata: 0xa2646970667358221220f79ff1b6c28943790473afe06c952028771e56abdfd2753076aa25ee1f5873e364736f6c63430008120033\n}\n",
				"bytecode": {
					"linkReferences": {},
					"object": "608060405234801561001057600080fd5b506107df806100206000396000f3fe60806040526004361061003f5760003560e01c806316c05aa21461004457806327e235e31461004e57806355e14fe61461008d578063f274c897146100ca575b600080fd5b61004c6100f3565b005b34801561005a57600080fd5b506100756004803603810190610070919061053e565b610269565b60405161008493929190610584565b60405180910390f35b34801561009957600080fd5b506100b460048036038101906100af91906105e7565b610293565b6040516100c19190610665565b60405180910390f35b3480156100d657600080fd5b506100f160048036038101906100ec91906106be565b610314565b005b346000803373ffffffffffffffffffffffffffffffffffffffff1673ffffffffffffffffffffffffffffffffffffffff1681526020019081526020016000206000016000828254610144919061072d565b9250508190555060006040518060400160405280348152602001428152509050806000803373ffffffffffffffffffffffffffffffffffffffff1673ffffffffffffffffffffffffffffffffffffffff16815260200190815260200160002060020160008060003373ffffffffffffffffffffffffffffffffffffffff1673ffffffffffffffffffffffffffffffffffffffff16815260200190815260200160002060010154815260200190815260200160002060008201518160000155602082015181600101559050506000803373ffffffffffffffffffffffffffffffffffffffff1673ffffffffffffffffffffffffffffffffffffffff168152602001908152602001600020600101600081548092919061026190610761565b919050555050565b60006020528060005260406000206000915090508060000154908060010154908060030154905083565b61029b6104c1565b6000808473ffffffffffffffffffffffffffffffffffffffff1673ffffffffffffffffffffffffffffffffffffffff168152602001908152602001600020600201600083815260200190815260200160002060405180604001604052908160008201548152602001600182015481525050905092915050565b806000803373ffffffffffffffffffffffffffffffffffffffff1673ffffffffffffffffffffffffffffffffffffffff1681526020019081526020016000206000018190555060006040518060400160405280838152602001428152509050806000803373ffffffffffffffffffffffffffffffffffffffff1673ffffffffffffffffffffffffffffffffffffffff16815260200190815260200160002060040160008060003373ffffffffffffffffffffffffffffffffffffffff1673ffffffffffffffffffffffffffffffffffffffff16815260200190815260200160002060030154815260200190815260200160002060008201518160000155602082015181600101559050506000803373ffffffffffffffffffffffffffffffffffffffff1673ffffffffffffffffffffffffffffffffffffffff168152602001908152602001600020600301600081548092919061047090610761565b91905055508273ffffffffffffffffffffffffffffffffffffffff166108fc839081150290604051600060405180830381858888f193505050501580156104bb573d6000803e3d6000fd5b50505050565b604051806040016040528060008152602001600081525090565b600080fd5b600073ffffffffffffffffffffffffffffffffffffffff82169050919050565b600061050b826104e0565b9050919050565b61051b81610500565b811461052657600080fd5b50565b60008135905061053881610512565b92915050565b600060208284031215610554576105536104db565b5b600061056284828501610529565b91505092915050565b6000819050919050565b61057e8161056b565b82525050565b60006060820190506105996000830186610575565b6105a66020830185610575565b6105b36040830184610575565b949350505050565b6105c48161056b565b81146105cf57600080fd5b50565b6000813590506105e1816105bb565b92915050565b600080604083850312156105fe576105fd6104db565b5b600061060c85828601610529565b925050602061061d858286016105d2565b9150509250929050565b6106308161056b565b82525050565b60408201600082015161064c6000850182610627565b50602082015161065f6020850182610627565b50505050565b600060408201905061067a6000830184610636565b92915050565b600061068b826104e0565b9050919050565b61069b81610680565b81146106a657600080fd5b50565b6000813590506106b881610692565b92915050565b600080604083850312156106d5576106d46104db565b5b60006106e3858286016106a9565b92505060206106f4858286016105d2565b9150509250929050565b7f4e487b7100000000000000000000000000000000000000000000000000000000600052601160045260246000fd5b60006107388261056b565b91506107438361056b565b925082820190508082111561075b5761075a6106fe565b5b92915050565b600061076c8261056b565b91507fffffffffffffffffffffffffffffffffffffffffffffffffffffffffffffffff820361079e5761079d6106fe565b5b60018201905091905056fea2646970667358221220f79ff1b6c28943790473afe06c952028771e56abdfd2753076aa25ee1f5873e364736f6c63430008120033",
					"opcodes": "PUSH1 0x80 PUSH1 0x40 MSTORE CALLVALUE DUP1 ISZERO PUSH2 0x10 JUMPI PUSH1 0x0 DUP1 REVERT JUMPDEST POP PUSH2 0x7DF DUP1 PUSH2 0x20 PUSH1 0x0 CODECOPY PUSH1 0x0 RETURN INVALID PUSH1 0x80 PUSH1 0x40 MSTORE PUSH1 0x4 CALLDATASIZE LT PUSH2 0x3F JUMPI PUSH1 0x0 CALLDATALOAD PUSH1 0xE0 SHR DUP1 PUSH4 0x16C05AA2 EQ PUSH2 0x44 JUMPI DUP1 PUSH4 0x27E235E3 EQ PUSH2 0x4E JUMPI DUP1 PUSH4 0x55E14FE6 EQ PUSH2 0x8D JUMPI DUP1 PUSH4 0xF274C897 EQ PUSH2 0xCA JUMPI JUMPDEST PUSH1 0x0 DUP1 REVERT JUMPDEST PUSH2 0x4C PUSH2 0xF3 JUMP JUMPDEST STOP JUMPDEST CALLVALUE DUP1 ISZERO PUSH2 0x5A JUMPI PUSH1 0x0 DUP1 REVERT JUMPDEST POP PUSH2 0x75 PUSH1 0x4 DUP1 CALLDATASIZE SUB DUP2 ADD SWAP1 PUSH2 0x70 SWAP2 SWAP1 PUSH2 0x53E JUMP JUMPDEST PUSH2 0x269 JUMP JUMPDEST PUSH1 0x40 MLOAD PUSH2 0x84 SWAP4 SWAP3 SWAP2 SWAP1 PUSH2 0x584 JUMP JUMPDEST PUSH1 0x40 MLOAD DUP1 SWAP2 SUB SWAP1 RETURN JUMPDEST CALLVALUE DUP1 ISZERO PUSH2 0x99 JUMPI PUSH1 0x0 DUP1 REVERT JUMPDEST POP PUSH2 0xB4 PUSH1 0x4 DUP1 CALLDATASIZE SUB DUP2 ADD SWAP1 PUSH2 0xAF SWAP2 SWAP1 PUSH2 0x5E7 JUMP JUMPDEST PUSH2 0x293 JUMP JUMPDEST PUSH1 0x40 MLOAD PUSH2 0xC1 SWAP2 SWAP1 PUSH2 0x665 JUMP JUMPDEST PUSH1 0x40 MLOAD DUP1 SWAP2 SUB SWAP1 RETURN JUMPDEST CALLVALUE DUP1 ISZERO PUSH2 0xD6 JUMPI PUSH1 0x0 DUP1 REVERT JUMPDEST POP PUSH2 0xF1 PUSH1 0x4 DUP1 CALLDATASIZE SUB DUP2 ADD SWAP1 PUSH2 0xEC SWAP2 SWAP1 PUSH2 0x6BE JUMP JUMPDEST PUSH2 0x314 JUMP JUMPDEST STOP JUMPDEST CALLVALUE PUSH1 0x0 DUP1 CALLER PUSH20 0xFFFFFFFFFFFFFFFFFFFFFFFFFFFFFFFFFFFFFFFF AND PUSH20 0xFFFFFFFFFFFFFFFFFFFFFFFFFFFFFFFFFFFFFFFF AND DUP2 MSTORE PUSH1 0x20 ADD SWAP1 DUP2 MSTORE PUSH1 0x20 ADD PUSH1 0x0 KECCAK256 PUSH1 0x0 ADD PUSH1 0x0 DUP3 DUP3 SLOAD PUSH2 0x144 SWAP2 SWAP1 PUSH2 0x72D JUMP JUMPDEST SWAP3 POP POP DUP2 SWAP1 SSTORE POP PUSH1 0x0 PUSH1 0x40 MLOAD DUP1 PUSH1 0x40 ADD PUSH1 0x40 MSTORE DUP1 CALLVALUE DUP2 MSTORE PUSH1 0x20 ADD TIMESTAMP DUP2 MSTORE POP SWAP1 POP DUP1 PUSH1 0x0 DUP1 CALLER PUSH20 0xFFFFFFFFFFFFFFFFFFFFFFFFFFFFFFFFFFFFFFFF AND PUSH20 0xFFFFFFFFFFFFFFFFFFFFFFFFFFFFFFFFFFFFFFFF AND DUP2 MSTORE PUSH1 0x20 ADD SWAP1 DUP2 MSTORE PUSH1 0x20 ADD PUSH1 0x0 KECCAK256 PUSH1 0x2 ADD PUSH1 0x0 DUP1 PUSH1 0x0 CALLER PUSH20 0xFFFFFFFFFFFFFFFFFFFFFFFFFFFFFFFFFFFFFFFF AND PUSH20 0xFFFFFFFFFFFFFFFFFFFFFFFFFFFFFFFFFFFFFFFF AND DUP2 MSTORE PUSH1 0x20 ADD SWAP1 DUP2 MSTORE PUSH1 0x20 ADD PUSH1 0x0 KECCAK256 PUSH1 0x1 ADD SLOAD DUP2 MSTORE PUSH1 0x20 ADD SWAP1 DUP2 MSTORE PUSH1 0x20 ADD PUSH1 0x0 KECCAK256 PUSH1 0x0 DUP3 ADD MLOAD DUP2 PUSH1 0x0 ADD SSTORE PUSH1 0x20 DUP3 ADD MLOAD DUP2 PUSH1 0x1 ADD SSTORE SWAP1 POP POP PUSH1 0x0 DUP1 CALLER PUSH20 0xFFFFFFFFFFFFFFFFFFFFFFFFFFFFFFFFFFFFFFFF AND PUSH20 0xFFFFFFFFFFFFFFFFFFFFFFFFFFFFFFFFFFFFFFFF AND DUP2 MSTORE PUSH1 0x20 ADD SWAP1 DUP2 MSTORE PUSH1 0x20 ADD PUSH1 0x0 KECCAK256 PUSH1 0x1 ADD PUSH1 0x0 DUP2 SLOAD DUP1 SWAP3 SWAP2 SWAP1 PUSH2 0x261 SWAP1 PUSH2 0x761 JUMP JUMPDEST SWAP2 SWAP1 POP SSTORE POP POP JUMP JUMPDEST PUSH1 0x0 PUSH1 0x20 MSTORE DUP1 PUSH1 0x0 MSTORE PUSH1 0x40 PUSH1 0x0 KECCAK256 PUSH1 0x0 SWAP2 POP SWAP1 POP DUP1 PUSH1 0x0 ADD SLOAD SWAP1 DUP1 PUSH1 0x1 ADD SLOAD SWAP1 DUP1 PUSH1 0x3 ADD SLOAD SWAP1 POP DUP4 JUMP JUMPDEST PUSH2 0x29B PUSH2 0x4C1 JUMP JUMPDEST PUSH1 0x0 DUP1 DUP5 PUSH20 0xFFFFFFFFFFFFFFFFFFFFFFFFFFFFFFFFFFFFFFFF AND PUSH20 0xFFFFFFFFFFFFFFFFFFFFFFFFFFFFFFFFFFFFFFFF AND DUP2 MSTORE PUSH1 0x20 ADD SWAP1 DUP2 MSTORE PUSH1 0x20 ADD PUSH1 0x0 KECCAK256 PUSH1 0x2 ADD PUSH1 0x0 DUP4 DUP2 MSTORE PUSH1 0x20 ADD SWAP1 DUP2 MSTORE PUSH1 0x20 ADD PUSH1 0x0 KECCAK256 PUSH1 0x40 MLOAD DUP1 PUSH1 0x40 ADD PUSH1 0x40 MSTORE SWAP1 DUP2 PUSH1 0x0 DUP3 ADD SLOAD DUP2 MSTORE PUSH1 0x20 ADD PUSH1 0x1 DUP3 ADD SLOAD DUP2 MSTORE POP POP SWAP1 POP SWAP3 SWAP2 POP POP JUMP JUMPDEST DUP1 PUSH1 0x0 DUP1 CALLER PUSH20 0xFFFFFFFFFFFFFFFFFFFFFFFFFFFFFFFFFFFFFFFF AND PUSH20 0xFFFFFFFFFFFFFFFFFFFFFFFFFFFFFFFFFFFFFFFF AND DUP2 MSTORE PUSH1 0x20 ADD SWAP1 DUP2 MSTORE PUSH1 0x20 ADD PUSH1 0x0 KECCAK256 PUSH1 0x0 ADD DUP2 SWAP1 SSTORE POP PUSH1 0x0 PUSH1 0x40 MLOAD DUP1 PUSH1 0x40 ADD PUSH1 0x40 MSTORE DUP1 DUP4 DUP2 MSTORE PUSH1 0x20 ADD TIMESTAMP DUP2 MSTORE POP SWAP1 POP DUP1 PUSH1 0x0 DUP1 CALLER PUSH20 0xFFFFFFFFFFFFFFFFFFFFFFFFFFFFFFFFFFFFFFFF AND PUSH20 0xFFFFFFFFFFFFFFFFFFFFFFFFFFFFFFFFFFFFFFFF AND DUP2 MSTORE PUSH1 0x20 ADD SWAP1 DUP2 MSTORE PUSH1 0x20 ADD PUSH1 0x0 KECCAK256 PUSH1 0x4 ADD PUSH1 0x0 DUP1 PUSH1 0x0 CALLER PUSH20 0xFFFFFFFFFFFFFFFFFFFFFFFFFFFFFFFFFFFFFFFF AND PUSH20 0xFFFFFFFFFFFFFFFFFFFFFFFFFFFFFFFFFFFFFFFF AND DUP2 MSTORE PUSH1 0x20 ADD SWAP1 DUP2 MSTORE PUSH1 0x20 ADD PUSH1 0x0 KECCAK256 PUSH1 0x3 ADD SLOAD DUP2 MSTORE PUSH1 0x20 ADD SWAP1 DUP2 MSTORE PUSH1 0x20 ADD PUSH1 0x0 KECCAK256 PUSH1 0x0 DUP3 ADD MLOAD DUP2 PUSH1 0x0 ADD SSTORE PUSH1 0x20 DUP3 ADD MLOAD DUP2 PUSH1 0x1 ADD SSTORE SWAP1 POP POP PUSH1 0x0 DUP1 CALLER PUSH20 0xFFFFFFFFFFFFFFFFFFFFFFFFFFFFFFFFFFFFFFFF AND PUSH20 0xFFFFFFFFFFFFFFFFFFFFFFFFFFFFFFFFFFFFFFFF AND DUP2 MSTORE PUSH1 0x20 ADD SWAP1 DUP2 MSTORE PUSH1 0x20 ADD PUSH1 0x0 KECCAK256 PUSH1 0x3 ADD PUSH1 0x0 DUP2 SLOAD DUP1 SWAP3 SWAP2 SWAP1 PUSH2 0x470 SWAP1 PUSH2 0x761 JUMP JUMPDEST SWAP2 SWAP1 POP SSTORE POP DUP3 PUSH20 0xFFFFFFFFFFFFFFFFFFFFFFFFFFFFFFFFFFFFFFFF AND PUSH2 0x8FC DUP4 SWAP1 DUP2 ISZERO MUL SWAP1 PUSH1 0x40 MLOAD PUSH1 0x0 PUSH1 0x40 MLOAD DUP1 DUP4 SUB DUP2 DUP6 DUP9 DUP9 CALL SWAP4 POP POP POP POP ISZERO DUP1 ISZERO PUSH2 0x4BB JUMPI RETURNDATASIZE PUSH1 0x0 DUP1 RETURNDATACOPY RETURNDATASIZE PUSH1 0x0 REVERT JUMPDEST POP POP POP POP JUMP JUMPDEST PUSH1 0x40 MLOAD DUP1 PUSH1 0x40 ADD PUSH1 0x40 MSTORE DUP1 PUSH1 0x0 DUP2 MSTORE PUSH1 0x20 ADD PUSH1 0x0 DUP2 MSTORE POP SWAP1 JUMP JUMPDEST PUSH1 0x0 DUP1 REVERT JUMPDEST PUSH1 0x0 PUSH20 0xFFFFFFFFFFFFFFFFFFFFFFFFFFFFFFFFFFFFFFFF DUP3 AND SWAP1 POP SWAP2 SWAP1 POP JUMP JUMPDEST PUSH1 0x0 PUSH2 0x50B DUP3 PUSH2 0x4E0 JUMP JUMPDEST SWAP1 POP SWAP2 SWAP1 POP JUMP JUMPDEST PUSH2 0x51B DUP2 PUSH2 0x500 JUMP JUMPDEST DUP2 EQ PUSH2 0x526 JUMPI PUSH1 0x0 DUP1 REVERT JUMPDEST POP JUMP JUMPDEST PUSH1 0x0 DUP2 CALLDATALOAD SWAP1 POP PUSH2 0x538 DUP2 PUSH2 0x512 JUMP JUMPDEST SWAP3 SWAP2 POP POP JUMP JUMPDEST PUSH1 0x0 PUSH1 0x20 DUP3 DUP5 SUB SLT ISZERO PUSH2 0x554 JUMPI PUSH2 0x553 PUSH2 0x4DB JUMP JUMPDEST JUMPDEST PUSH1 0x0 PUSH2 0x562 DUP5 DUP3 DUP6 ADD PUSH2 0x529 JUMP JUMPDEST SWAP2 POP POP SWAP3 SWAP2 POP POP JUMP JUMPDEST PUSH1 0x0 DUP2 SWAP1 POP SWAP2 SWAP1 POP JUMP JUMPDEST PUSH2 0x57E DUP2 PUSH2 0x56B JUMP JUMPDEST DUP3 MSTORE POP POP JUMP JUMPDEST PUSH1 0x0 PUSH1 0x60 DUP3 ADD SWAP1 POP PUSH2 0x599 PUSH1 0x0 DUP4 ADD DUP7 PUSH2 0x575 JUMP JUMPDEST PUSH2 0x5A6 PUSH1 0x20 DUP4 ADD DUP6 PUSH2 0x575 JUMP JUMPDEST PUSH2 0x5B3 PUSH1 0x40 DUP4 ADD DUP5 PUSH2 0x575 JUMP JUMPDEST SWAP5 SWAP4 POP POP POP POP JUMP JUMPDEST PUSH2 0x5C4 DUP2 PUSH2 0x56B JUMP JUMPDEST DUP2 EQ PUSH2 0x5CF JUMPI PUSH1 0x0 DUP1 REVERT JUMPDEST POP JUMP JUMPDEST PUSH1 0x0 DUP2 CALLDATALOAD SWAP1 POP PUSH2 0x5E1 DUP2 PUSH2 0x5BB JUMP JUMPDEST SWAP3 SWAP2 POP POP JUMP JUMPDEST PUSH1 0x0 DUP1 PUSH1 0x40 DUP4 DUP6 SUB SLT ISZERO PUSH2 0x5FE JUMPI PUSH2 0x5FD PUSH2 0x4DB JUMP JUMPDEST JUMPDEST PUSH1 0x0 PUSH2 0x60C DUP6 DUP3 DUP7 ADD PUSH2 0x529 JUMP JUMPDEST SWAP3 POP POP PUSH1 0x20 PUSH2 0x61D DUP6 DUP3 DUP7 ADD PUSH2 0x5D2 JUMP JUMPDEST SWAP2 POP POP SWAP3 POP SWAP3 SWAP1 POP JUMP JUMPDEST PUSH2 0x630 DUP2 PUSH2 0x56B JUMP JUMPDEST DUP3 MSTORE POP POP JUMP JUMPDEST PUSH1 0x40 DUP3 ADD PUSH1 0x0 DUP3 ADD MLOAD PUSH2 0x64C PUSH1 0x0 DUP6 ADD DUP3 PUSH2 0x627 JUMP JUMPDEST POP PUSH1 0x20 DUP3 ADD MLOAD PUSH2 0x65F PUSH1 0x20 DUP6 ADD DUP3 PUSH2 0x627 JUMP JUMPDEST POP POP POP POP JUMP JUMPDEST PUSH1 0x0 PUSH1 0x40 DUP3 ADD SWAP1 POP PUSH2 0x67A PUSH1 0x0 DUP4 ADD DUP5 PUSH2 0x636 JUMP JUMPDEST SWAP3 SWAP2 POP POP JUMP JUMPDEST PUSH1 0x0 PUSH2 0x68B DUP3 PUSH2 0x4E0 JUMP JUMPDEST SWAP1 POP SWAP2 SWAP1 POP JUMP JUMPDEST PUSH2 0x69B DUP2 PUSH2 0x680 JUMP JUMPDEST DUP2 EQ PUSH2 0x6A6 JUMPI PUSH1 0x0 DUP1 REVERT JUMPDEST POP JUMP JUMPDEST PUSH1 0x0 DUP2 CALLDATALOAD SWAP1 POP PUSH2 0x6B8 DUP2 PUSH2 0x692 JUMP JUMPDEST SWAP3 SWAP2 POP POP JUMP JUMPDEST PUSH1 0x0 DUP1 PUSH1 0x40 DUP4 DUP6 SUB SLT ISZERO PUSH2 0x6D5 JUMPI PUSH2 0x6D4 PUSH2 0x4DB JUMP JUMPDEST JUMPDEST PUSH1 0x0 PUSH2 0x6E3 DUP6 DUP3 DUP7 ADD PUSH2 0x6A9 JUMP JUMPDEST SWAP3 POP POP PUSH1 0x20 PUSH2 0x6F4 DUP6 DUP3 DUP7 ADD PUSH2 0x5D2 JUMP JUMPDEST SWAP2 POP POP SWAP3 POP SWAP3 SWAP1 POP JUMP JUMPDEST PUSH32 0x4E487B7100000000000000000000000000000000000000000000000000000000 PUSH1 0x0 MSTORE PUSH1 0x11 PUSH1 0x4 MSTORE PUSH1 0x24 PUSH1 0x0 REVERT JUMPDEST PUSH1 0x0 PUSH2 0x738 DUP3 PUSH2 0x56B JUMP JUMPDEST SWAP2 POP PUSH2 0x743 DUP4 PUSH2 0x56B JUMP JUMPDEST SWAP3 POP DUP3 DUP3 ADD SWAP1 POP DUP1 DUP3 GT ISZERO PUSH2 0x75B JUMPI PUSH2 0x75A PUSH2 0x6FE JUMP JUMPDEST JUMPDEST SWAP3 SWAP2 POP POP JUMP JUMPDEST PUSH1 0x0 PUSH2 0x76C DUP3 PUSH2 0x56B JUMP JUMPDEST SWAP2 POP PUSH32 0xFFFFFFFFFFFFFFFFFFFFFFFFFFFFFFFFFFFFFFFFFFFFFFFFFFFFFFFFFFFFFFFF DUP3 SUB PUSH2 0x79E JUMPI PUSH2 0x79D PUSH2 0x6FE JUMP JUMPDEST JUMPDEST PUSH1 0x1 DUP3 ADD SWAP1 POP SWAP2 SWAP1 POP JUMP INVALID LOG2 PUSH5 0x6970667358 0x22 SLT KECCAK256 0xF7 SWAP16 CALL 0xB6 0xC2 DUP10 NUMBER PUSH26 0x473AFE06C952028771E56ABDFD2753076AA25EE1F5873E36473 PUSH16 0x6C634300081200330000000000000000 "
				},
				"gasEstimates": {
					"creation": {
						"codeDepositCost": "403000",
						"executionCost": "436",
						"totalCost": "403436"
					},
					"external": {
						"balances(address)": "infinite",
						"depositMoney()": "infinite",
						"getDepositNum(address,uint256)": "infinite",
						"withdrawMoney(address,uint256)": "infinite"
					}
				},
				"methodIdentifiers": {
					"balances(address)": "27e235e3",
					"depositMoney()": "16c05aa2",
					"getDepositNum(address,uint256)": "55e14fe6",
					"withdrawMoney(address,uint256)": "f274c897"
				}
			},
			"storageLayout": {
				"storage": [
					{
						"astId": 28,
						"contract": "contracts/MappingStruct.sol:MappingStruct",
						"label": "balances",
						"offset": 0,
						"slot": "0",
						"type": "t_mapping(t_address,t_struct(Balance)23_storage)"
					}
				],
				"types": {
					"t_address": {
						"encoding": "inplace",
						"label": "address",
						"numberOfBytes": "20"
					},
					"t_mapping(t_address,t_struct(Balance)23_storage)": {
						"encoding": "mapping",
						"key": "t_address",
						"label": "mapping(address => struct MappingStruct.Balance)",
						"numberOfBytes": "32",
						"value": "t_struct(Balance)23_storage"
					},
					"t_mapping(t_uint256,t_struct(Transaction)6_storage)": {
						"encoding": "mapping",
						"key": "t_uint256",
						"label": "mapping(uint256 => struct MappingStruct.Transaction)",
						"numberOfBytes": "32",
						"value": "t_struct(Transaction)6_storage"
					},
					"t_struct(Balance)23_storage": {
						"encoding": "inplace",
						"label": "struct MappingStruct.Balance",
						"members": [
							{
								"astId": 8,
								"contract": "contracts/MappingStruct.sol:MappingStruct",
								"label": "totalBalance",
								"offset": 0,
								"slot": "0",
								"type": "t_uint256"
							},
							{
								"astId": 10,
								"contract": "contracts/MappingStruct.sol:MappingStruct",
								"label": "numDeposits",
								"offset": 0,
								"slot": "1",
								"type": "t_uint256"
							},
							{
								"astId": 15,
								"contract": "contracts/MappingStruct.sol:MappingStruct",
								"label": "deposits",
								"offset": 0,
								"slot": "2",
								"type": "t_mapping(t_uint256,t_struct(Transaction)6_storage)"
							},
							{
								"astId": 17,
								"contract": "contracts/MappingStruct.sol:MappingStruct",
								"label": "numWithdrawals",
								"offset": 0,
								"slot": "3",
								"type": "t_uint256"
							},
							{
								"astId": 22,
								"contract": "contracts/MappingStruct.sol:MappingStruct",
								"label": "withdrawals",
								"offset": 0,
								"slot": "4",
								"type": "t_mapping(t_uint256,t_struct(Transaction)6_storage)"
							}
						],
						"numberOfBytes": "160"
					},
					"t_struct(Transaction)6_storage": {
						"encoding": "inplace",
						"label": "struct MappingStruct.Transaction",
						"members": [
							{
								"astId": 3,
								"contract": "contracts/MappingStruct.sol:MappingStruct",
								"label": "amount",
								"offset": 0,
								"slot": "0",
								"type": "t_uint256"
							},
							{
								"astId": 5,
								"contract": "contracts/MappingStruct.sol:MappingStruct",
								"label": "timestamp",
								"offset": 0,
								"slot": "1",
								"type": "t_uint256"
							}
						],
						"numberOfBytes": "64"
					},
					"t_uint256": {
						"encoding": "inplace",
						"label": "uint256",
						"numberOfBytes": "32"
					}
				}
			},
			"userdoc": {
				"kind": "user",
				"methods": {},
				"version": 1
			}
		}
	}
}