{
	"Wallet/contracts/ContractCall.sol": {
		"ContractOne": {
			"abi": [
				{
					"inputs": [
						{
							"internalType": "address",
							"name": "",
							"type": "address"
						}
					],
					"name": "addressBalances",
					"outputs": [
						{
							"internalType": "uint256",
							"name": "",
							"type": "uint256"
						}
					],
					"stateMutability": "view",
					"type": "function"
				},
				{
					"inputs": [],
					"name": "deposit",
					"outputs": [],
					"stateMutability": "payable",
					"type": "function"
				},
				{
					"stateMutability": "payable",
					"type": "receive"
				}
			],
			"devdoc": {
				"kind": "dev",
				"methods": {},
				"version": 1
			},
			"evm": {
				"assembly": "    /* \"Wallet/contracts/ContractCall.sol\":61:304  contract ContractOne {... */\n  mstore(0x40, 0x80)\n  callvalue\n  dup1\n  iszero\n  tag_1\n  jumpi\n  0x00\n  dup1\n  revert\ntag_1:\n  pop\n  dataSize(sub_0)\n  dup1\n  dataOffset(sub_0)\n  0x00\n  codecopy\n  0x00\n  return\nstop\n\nsub_0: assembly {\n        /* \"Wallet/contracts/ContractCall.sol\":61:304  contract ContractOne {... */\n      mstore(0x40, 0x80)\n      jumpi(tag_1, lt(calldatasize, 0x04))\n      shr(0xe0, calldataload(0x00))\n      dup1\n      0x79fc3682\n      eq\n      tag_3\n      jumpi\n      dup1\n      0xd0e30db0\n      eq\n      tag_4\n      jumpi\n      jump(tag_2)\n    tag_1:\n      jumpi(tag_2, calldatasize)\n        /* \"Wallet/contracts/ContractCall.sol\":284:293  deposit() */\n      tag_7\n        /* \"Wallet/contracts/ContractCall.sol\":284:291  deposit */\n      tag_8\n        /* \"Wallet/contracts/ContractCall.sol\":284:293  deposit() */\n      jump\t// in\n    tag_7:\n        /* \"Wallet/contracts/ContractCall.sol\":61:304  contract ContractOne {... */\n      stop\n    tag_2:\n      0x00\n      dup1\n      revert\n        /* \"Wallet/contracts/ContractCall.sol\":89:136  mapping(address => uint) public addressBalances */\n    tag_3:\n      callvalue\n      dup1\n      iszero\n      tag_9\n      jumpi\n      0x00\n      dup1\n      revert\n    tag_9:\n      pop\n      tag_10\n      0x04\n      dup1\n      calldatasize\n      sub\n      dup2\n      add\n      swap1\n      tag_11\n      swap2\n      swap1\n      tag_12\n      jump\t// in\n    tag_11:\n      tag_13\n      jump\t// in\n    tag_10:\n      mload(0x40)\n      tag_14\n      swap2\n      swap1\n      tag_15\n      jump\t// in\n    tag_14:\n      mload(0x40)\n      dup1\n      swap2\n      sub\n      swap1\n      return\n        /* \"Wallet/contracts/ContractCall.sol\":145:238  function deposit() public payable {... */\n    tag_4:\n      tag_16\n      tag_8\n      jump\t// in\n    tag_16:\n      stop\n    tag_8:\n        /* \"Wallet/contracts/ContractCall.sol\":221:230  msg.value */\n      callvalue\n        /* \"Wallet/contracts/ContractCall.sol\":190:205  addressBalances */\n      0x00\n        /* \"Wallet/contracts/ContractCall.sol\":190:217  addressBalances[msg.sender] */\n      dup1\n        /* \"Wallet/contracts/ContractCall.sol\":206:216  msg.sender */\n      caller\n        /* \"Wallet/contracts/ContractCall.sol\":190:217  addressBalances[msg.sender] */\n      0xffffffffffffffffffffffffffffffffffffffff\n      and\n      0xffffffffffffffffffffffffffffffffffffffff\n      and\n      dup2\n      mstore\n      0x20\n      add\n      swap1\n      dup2\n      mstore\n      0x20\n      add\n      0x00\n      keccak256\n      0x00\n        /* \"Wallet/contracts/ContractCall.sol\":190:230  addressBalances[msg.sender] += msg.value */\n      dup3\n      dup3\n      sload\n      tag_18\n      swap2\n      swap1\n      tag_19\n      jump\t// in\n    tag_18:\n      swap3\n      pop\n      pop\n      dup2\n      swap1\n      sstore\n      pop\n        /* \"Wallet/contracts/ContractCall.sol\":145:238  function deposit() public payable {... */\n      jump\t// out\n        /* \"Wallet/contracts/ContractCall.sol\":89:136  mapping(address => uint) public addressBalances */\n    tag_13:\n      mstore(0x20, 0x00)\n      dup1\n      0x00\n      mstore\n      keccak256(0x00, 0x40)\n      0x00\n      swap2\n      pop\n      swap1\n      pop\n      sload\n      dup2\n      jump\t// out\n        /* \"#utility.yul\":88:205   */\n    tag_21:\n        /* \"#utility.yul\":197:198   */\n      0x00\n        /* \"#utility.yul\":194:195   */\n      dup1\n        /* \"#utility.yul\":187:199   */\n      revert\n        /* \"#utility.yul\":334:460   */\n    tag_23:\n        /* \"#utility.yul\":371:378   */\n      0x00\n        /* \"#utility.yul\":411:453   */\n      0xffffffffffffffffffffffffffffffffffffffff\n        /* \"#utility.yul\":404:409   */\n      dup3\n        /* \"#utility.yul\":400:454   */\n      and\n        /* \"#utility.yul\":389:454   */\n      swap1\n      pop\n        /* \"#utility.yul\":334:460   */\n      swap2\n      swap1\n      pop\n      jump\t// out\n        /* \"#utility.yul\":466:562   */\n    tag_24:\n        /* \"#utility.yul\":503:510   */\n      0x00\n        /* \"#utility.yul\":532:556   */\n      tag_36\n        /* \"#utility.yul\":550:555   */\n      dup3\n        /* \"#utility.yul\":532:556   */\n      tag_23\n      jump\t// in\n    tag_36:\n        /* \"#utility.yul\":521:556   */\n      swap1\n      pop\n        /* \"#utility.yul\":466:562   */\n      swap2\n      swap1\n      pop\n      jump\t// out\n        /* \"#utility.yul\":568:690   */\n    tag_25:\n        /* \"#utility.yul\":641:665   */\n      tag_38\n        /* \"#utility.yul\":659:664   */\n      dup2\n        /* \"#utility.yul\":641:665   */\n      tag_24\n      jump\t// in\n    tag_38:\n        /* \"#utility.yul\":634:639   */\n      dup2\n        /* \"#utility.yul\":631:666   */\n      eq\n        /* \"#utility.yul\":621:684   */\n      tag_39\n      jumpi\n        /* \"#utility.yul\":680:681   */\n      0x00\n        /* \"#utility.yul\":677:678   */\n      dup1\n        /* \"#utility.yul\":670:682   */\n      revert\n        /* \"#utility.yul\":621:684   */\n    tag_39:\n        /* \"#utility.yul\":568:690   */\n      pop\n      jump\t// out\n        /* \"#utility.yul\":696:835   */\n    tag_26:\n        /* \"#utility.yul\":742:747   */\n      0x00\n        /* \"#utility.yul\":780:786   */\n      dup2\n        /* \"#utility.yul\":767:787   */\n      calldataload\n        /* \"#utility.yul\":758:787   */\n      swap1\n      pop\n        /* \"#utility.yul\":796:829   */\n      tag_41\n        /* \"#utility.yul\":823:828   */\n      dup2\n        /* \"#utility.yul\":796:829   */\n      tag_25\n      jump\t// in\n    tag_41:\n        /* \"#utility.yul\":696:835   */\n      swap3\n      swap2\n      pop\n      pop\n      jump\t// out\n        /* \"#utility.yul\":841:1170   */\n    tag_12:\n        /* \"#utility.yul\":900:906   */\n      0x00\n        /* \"#utility.yul\":949:951   */\n      0x20\n        /* \"#utility.yul\":937:946   */\n      dup3\n        /* \"#utility.yul\":928:935   */\n      dup5\n        /* \"#utility.yul\":924:947   */\n      sub\n        /* \"#utility.yul\":920:952   */\n      slt\n        /* \"#utility.yul\":917:1036   */\n      iszero\n      tag_43\n      jumpi\n        /* \"#utility.yul\":955:1034   */\n      tag_44\n      tag_21\n      jump\t// in\n    tag_44:\n        /* \"#utility.yul\":917:1036   */\n    tag_43:\n        /* \"#utility.yul\":1075:1076   */\n      0x00\n        /* \"#utility.yul\":1100:1153   */\n      tag_45\n        /* \"#utility.yul\":1145:1152   */\n      dup5\n        /* \"#utility.yul\":1136:1142   */\n      dup3\n        /* \"#utility.yul\":1125:1134   */\n      dup6\n        /* \"#utility.yul\":1121:1143   */\n      add\n        /* \"#utility.yul\":1100:1153   */\n      tag_26\n      jump\t// in\n    tag_45:\n        /* \"#utility.yul\":1090:1153   */\n      swap2\n      pop\n        /* \"#utility.yul\":1046:1163   */\n      pop\n        /* \"#utility.yul\":841:1170   */\n      swap3\n      swap2\n      pop\n      pop\n      jump\t// out\n        /* \"#utility.yul\":1176:1253   */\n    tag_27:\n        /* \"#utility.yul\":1213:1220   */\n      0x00\n        /* \"#utility.yul\":1242:1247   */\n      dup2\n        /* \"#utility.yul\":1231:1247   */\n      swap1\n      pop\n        /* \"#utility.yul\":1176:1253   */\n      swap2\n      swap1\n      pop\n      jump\t// out\n        /* \"#utility.yul\":1259:1377   */\n    tag_28:\n        /* \"#utility.yul\":1346:1370   */\n      tag_48\n        /* \"#utility.yul\":1364:1369   */\n      dup2\n        /* \"#utility.yul\":1346:1370   */\n      tag_27\n      jump\t// in\n    tag_48:\n        /* \"#utility.yul\":1341:1344   */\n      dup3\n        /* \"#utility.yul\":1334:1371   */\n      mstore\n        /* \"#utility.yul\":1259:1377   */\n      pop\n      pop\n      jump\t// out\n        /* \"#utility.yul\":1383:1605   */\n    tag_15:\n        /* \"#utility.yul\":1476:1480   */\n      0x00\n        /* \"#utility.yul\":1514:1516   */\n      0x20\n        /* \"#utility.yul\":1503:1512   */\n      dup3\n        /* \"#utility.yul\":1499:1517   */\n      add\n        /* \"#utility.yul\":1491:1517   */\n      swap1\n      pop\n        /* \"#utility.yul\":1527:1598   */\n      tag_50\n        /* \"#utility.yul\":1595:1596   */\n      0x00\n        /* \"#utility.yul\":1584:1593   */\n      dup4\n        /* \"#utility.yul\":1580:1597   */\n      add\n        /* \"#utility.yul\":1571:1577   */\n      dup5\n        /* \"#utility.yul\":1527:1598   */\n      tag_28\n      jump\t// in\n    tag_50:\n        /* \"#utility.yul\":1383:1605   */\n      swap3\n      swap2\n      pop\n      pop\n      jump\t// out\n        /* \"#utility.yul\":1611:1791   */\n    tag_29:\n        /* \"#utility.yul\":1659:1736   */\n      0x4e487b7100000000000000000000000000000000000000000000000000000000\n        /* \"#utility.yul\":1656:1657   */\n      0x00\n        /* \"#utility.yul\":1649:1737   */\n      mstore\n        /* \"#utility.yul\":1756:1760   */\n      0x11\n        /* \"#utility.yul\":1753:1754   */\n      0x04\n        /* \"#utility.yul\":1746:1761   */\n      mstore\n        /* \"#utility.yul\":1780:1784   */\n      0x24\n        /* \"#utility.yul\":1777:1778   */\n      0x00\n        /* \"#utility.yul\":1770:1785   */\n      revert\n        /* \"#utility.yul\":1797:1988   */\n    tag_19:\n        /* \"#utility.yul\":1837:1840   */\n      0x00\n        /* \"#utility.yul\":1856:1876   */\n      tag_53\n        /* \"#utility.yul\":1874:1875   */\n      dup3\n        /* \"#utility.yul\":1856:1876   */\n      tag_27\n      jump\t// in\n    tag_53:\n        /* \"#utility.yul\":1851:1876   */\n      swap2\n      pop\n        /* \"#utility.yul\":1890:1910   */\n      tag_54\n        /* \"#utility.yul\":1908:1909   */\n      dup4\n        /* \"#utility.yul\":1890:1910   */\n      tag_27\n      jump\t// in\n    tag_54:\n        /* \"#utility.yul\":1885:1910   */\n      swap3\n      pop\n        /* \"#utility.yul\":1933:1934   */\n      dup3\n        /* \"#utility.yul\":1930:1931   */\n      dup3\n        /* \"#utility.yul\":1926:1935   */\n      add\n        /* \"#utility.yul\":1919:1935   */\n      swap1\n      pop\n        /* \"#utility.yul\":1954:1957   */\n      dup1\n        /* \"#utility.yul\":1951:1952   */\n      dup3\n        /* \"#utility.yul\":1948:1958   */\n      gt\n        /* \"#utility.yul\":1945:1981   */\n      iszero\n      tag_55\n      jumpi\n        /* \"#utility.yul\":1961:1979   */\n      tag_56\n      tag_29\n      jump\t// in\n    tag_56:\n        /* \"#utility.yul\":1945:1981   */\n    tag_55:\n        /* \"#utility.yul\":1797:1988   */\n      swap3\n      swap2\n      pop\n      pop\n      jump\t// out\n\n    auxdata: 0xa2646970667358221220c1cd7cebdf173b84cb8fbde16af7faa684eec0d385af738db7c1fcb303ea908964736f6c63430008140033\n}\n",
				"bytecode": {
					"linkReferences": {},
					"object": "608060405234801561000f575f80fd5b5061023d8061001d5f395ff3fe60806040526004361061002c575f3560e01c806379fc36821461003f578063d0e30db01461007b5761003b565b3661003b57610039610085565b005b5f80fd5b34801561004a575f80fd5b506100656004803603810190610060919061014b565b6100d9565b604051610072919061018e565b60405180910390f35b610083610085565b005b345f803373ffffffffffffffffffffffffffffffffffffffff1673ffffffffffffffffffffffffffffffffffffffff1681526020019081526020015f205f8282546100d091906101d4565b92505081905550565b5f602052805f5260405f205f915090505481565b5f80fd5b5f73ffffffffffffffffffffffffffffffffffffffff82169050919050565b5f61011a826100f1565b9050919050565b61012a81610110565b8114610134575f80fd5b50565b5f8135905061014581610121565b92915050565b5f602082840312156101605761015f6100ed565b5b5f61016d84828501610137565b91505092915050565b5f819050919050565b61018881610176565b82525050565b5f6020820190506101a15f83018461017f565b92915050565b7f4e487b71000000000000000000000000000000000000000000000000000000005f52601160045260245ffd5b5f6101de82610176565b91506101e983610176565b9250828201905080821115610201576102006101a7565b5b9291505056fea2646970667358221220c1cd7cebdf173b84cb8fbde16af7faa684eec0d385af738db7c1fcb303ea908964736f6c63430008140033",
					"opcodes": "PUSH1 0x80 PUSH1 0x40 MSTORE CALLVALUE DUP1 ISZERO PUSH2 0xF JUMPI PUSH0 DUP1 REVERT JUMPDEST POP PUSH2 0x23D DUP1 PUSH2 0x1D PUSH0 CODECOPY PUSH0 RETURN INVALID PUSH1 0x80 PUSH1 0x40 MSTORE PUSH1 0x4 CALLDATASIZE LT PUSH2 0x2C JUMPI PUSH0 CALLDATALOAD PUSH1 0xE0 SHR DUP1 PUSH4 0x79FC3682 EQ PUSH2 0x3F JUMPI DUP1 PUSH4 0xD0E30DB0 EQ PUSH2 0x7B JUMPI PUSH2 0x3B JUMP JUMPDEST CALLDATASIZE PUSH2 0x3B JUMPI PUSH2 0x39 PUSH2 0x85 JUMP JUMPDEST STOP JUMPDEST PUSH0 DUP1 REVERT JUMPDEST CALLVALUE DUP1 ISZERO PUSH2 0x4A JUMPI PUSH0 DUP1 REVERT JUMPDEST POP PUSH2 0x65 PUSH1 0x4 DUP1 CALLDATASIZE SUB DUP2 ADD SWAP1 PUSH2 0x60 SWAP2 SWAP1 PUSH2 0x14B JUMP JUMPDEST PUSH2 0xD9 JUMP JUMPDEST PUSH1 0x40 MLOAD PUSH2 0x72 SWAP2 SWAP1 PUSH2 0x18E JUMP JUMPDEST PUSH1 0x40 MLOAD DUP1 SWAP2 SUB SWAP1 RETURN JUMPDEST PUSH2 0x83 PUSH2 0x85 JUMP JUMPDEST STOP JUMPDEST CALLVALUE PUSH0 DUP1 CALLER PUSH20 0xFFFFFFFFFFFFFFFFFFFFFFFFFFFFFFFFFFFFFFFF AND PUSH20 0xFFFFFFFFFFFFFFFFFFFFFFFFFFFFFFFFFFFFFFFF AND DUP2 MSTORE PUSH1 0x20 ADD SWAP1 DUP2 MSTORE PUSH1 0x20 ADD PUSH0 KECCAK256 PUSH0 DUP3 DUP3 SLOAD PUSH2 0xD0 SWAP2 SWAP1 PUSH2 0x1D4 JUMP JUMPDEST SWAP3 POP POP DUP2 SWAP1 SSTORE POP JUMP JUMPDEST PUSH0 PUSH1 0x20 MSTORE DUP1 PUSH0 MSTORE PUSH1 0x40 PUSH0 KECCAK256 PUSH0 SWAP2 POP SWAP1 POP SLOAD DUP2 JUMP JUMPDEST PUSH0 DUP1 REVERT JUMPDEST PUSH0 PUSH20 0xFFFFFFFFFFFFFFFFFFFFFFFFFFFFFFFFFFFFFFFF DUP3 AND SWAP1 POP SWAP2 SWAP1 POP JUMP JUMPDEST PUSH0 PUSH2 0x11A DUP3 PUSH2 0xF1 JUMP JUMPDEST SWAP1 POP SWAP2 SWAP1 POP JUMP JUMPDEST PUSH2 0x12A DUP2 PUSH2 0x110 JUMP JUMPDEST DUP2 EQ PUSH2 0x134 JUMPI PUSH0 DUP1 REVERT JUMPDEST POP JUMP JUMPDEST PUSH0 DUP2 CALLDATALOAD SWAP1 POP PUSH2 0x145 DUP2 PUSH2 0x121 JUMP JUMPDEST SWAP3 SWAP2 POP POP JUMP JUMPDEST PUSH0 PUSH1 0x20 DUP3 DUP5 SUB SLT ISZERO PUSH2 0x160 JUMPI PUSH2 0x15F PUSH2 0xED JUMP JUMPDEST JUMPDEST PUSH0 PUSH2 0x16D DUP5 DUP3 DUP6 ADD PUSH2 0x137 JUMP JUMPDEST SWAP2 POP POP SWAP3 SWAP2 POP POP JUMP JUMPDEST PUSH0 DUP2 SWAP1 POP SWAP2 SWAP1 POP JUMP JUMPDEST PUSH2 0x188 DUP2 PUSH2 0x176 JUMP JUMPDEST DUP3 MSTORE POP POP JUMP JUMPDEST PUSH0 PUSH1 0x20 DUP3 ADD SWAP1 POP PUSH2 0x1A1 PUSH0 DUP4 ADD DUP5 PUSH2 0x17F JUMP JUMPDEST SWAP3 SWAP2 POP POP JUMP JUMPDEST PUSH32 0x4E487B7100000000000000000000000000000000000000000000000000000000 PUSH0 MSTORE PUSH1 0x11 PUSH1 0x4 MSTORE PUSH1 0x24 PUSH0 REVERT JUMPDEST PUSH0 PUSH2 0x1DE DUP3 PUSH2 0x176 JUMP JUMPDEST SWAP2 POP PUSH2 0x1E9 DUP4 PUSH2 0x176 JUMP JUMPDEST SWAP3 POP DUP3 DUP3 ADD SWAP1 POP DUP1 DUP3 GT ISZERO PUSH2 0x201 JUMPI PUSH2 0x200 PUSH2 0x1A7 JUMP JUMPDEST JUMPDEST SWAP3 SWAP2 POP POP JUMP INVALID LOG2 PUSH5 0x6970667358 0x22 SLT KECCAK256 0xC1 0xCD PUSH29 0xEBDF173B84CB8FBDE16AF7FAA684EEC0D385AF738DB7C1FCB303EA9089 PUSH5 0x736F6C6343 STOP ADDMOD EQ STOP CALLER "
				},
				"gasEstimates": {
					"creation": {
						"codeDepositCost": "114600",
						"executionCost": "157",
						"totalCost": "114757"
					},
					"external": {
						"addressBalances(address)": "2779",
						"deposit()": "infinite"
					}
				},
				"methodIdentifiers": {
					"addressBalances(address)": "79fc3682",
					"deposit()": "d0e30db0"
				}
			},
			"storageLayout": {
				"storage": [
					{
						"astId": 5,
						"contract": "Wallet/contracts/ContractCall.sol:ContractOne",
						"label": "addressBalances",
						"offset": 0,
						"slot": "0",
						"type": "t_mapping(t_address,t_uint256)"
					}
				],
				"types": {
					"t_address": {
						"encoding": "inplace",
						"label": "address",
						"numberOfBytes": "20"
					},
					"t_mapping(t_address,t_uint256)": {
						"encoding": "mapping",
						"key": "t_address",
						"label": "mapping(address => uint256)",
						"numberOfBytes": "32",
						"value": "t_uint256"
					},
					"t_uint256": {
						"encoding": "inplace",
						"label": "uint256",
						"numberOfBytes": "32"
					}
				}
			},
			"userdoc": {
				"kind": "user",
				"methods": {},
				"version": 1
			}
		}
	}
}